{
  "_format": "hh-sol-artifact-1",
  "contractName": "Multiplier_plonkVerifier",
  "sourceName": "contracts/Multiplier3_plonk.sol",
  "abi": [
    {
      "inputs": [
        {
          "internalType": "bytes",
          "name": "proof",
          "type": "bytes"
        },
        {
          "internalType": "uint256[]",
          "name": "pubSignals",
          "type": "uint256[]"
        }
      ],
      "name": "verifyProof",
      "outputs": [
        {
          "internalType": "bool",
          "name": "",
          "type": "bool"
        }
      ],
      "stateMutability": "view",
      "type": "function"
    }
  ],
  "bytecode": "0x608060405234801561001057600080fd5b50611b4e806100206000396000f3fe608060405234801561001057600080fd5b506004361061002b5760003560e01c80631e8e1e1314610030575b600080fd5b61004a60048036038101906100459190611953565b610060565b60405161005791906119ce565b60405180910390f35b60006117d5565b600080600184846000805b821561009c5782840591508482028603905084955080945082820284039050829350809250610072565b60018411156100aa57600080fd5b60008612156100b95788860195505b85965050505050505092915050565b60405181602084028301815160208301925060005b82841015610120578185527f30644e72e131a029b85045b68181585d2833e84879b9709143e1f593f00000018451830991506020850194506020840193506100dd565b61014a7f30644e72e131a029b85045b68181585d2833e84879b9709143e1f593f000000183610067565b91506020850394506020840393508592505b828411156101c6577f30644e72e131a029b85045b68181585d2833e84879b9709143e1f593f00000018551830990507f30644e72e131a029b85045b68181585d2833e84879b9709143e1f593f000000184518309915080845260208503945060208403935061015c565b81845250505050505050565b7f30644e72e131a029b85045b68181585d2833e84879b9709143e1f593f00000018110610203576000805260206000f35b50565b61032081511461021a576000805260206000f35b6102286102608201516101d2565b6102366102808201516101d2565b6102446102a08201516101d2565b6102526102c08201516101d2565b6102606102e08201516101d2565b61026e6103008201516101d2565b61027c6103208201516101d2565b50565b60008060208501516102c085015260208301516102e08501526020800183015161030085015260406020018301516103208501526060602001830151610340850152608060200183015161036085015260a06020018301516103808501527f30644e72e131a029b85045b68181585d2833e84879b9709143e1f593f000000160e06102c08601200690508060208501527f30644e72e131a029b85045b68181585d2833e84879b9709143e1f593f00000016020808601200660408501527f30644e72e131a029b85045b68181585d2833e84879b9709143e1f593f0000001604060e08501200660008501527f30644e72e131a029b85045b68181585d2833e84879b9709143e1f593f000000160c06101208501200691508160608501527f30644e72e131a029b85045b68181585d2833e84879b9709143e1f593f000000182820960a08501527f30644e72e131a029b85045b68181585d2833e84879b9709143e1f593f000000182830991507f30644e72e131a029b85045b68181585d2833e84879b9709143e1f593f000000182830991507f30644e72e131a029b85045b68181585d2833e84879b9709143e1f593f000000182830991508160808501527f30644e72e131a029b85045b68181585d2833e84879b9709143e1f593f000000180600184030106915081610260850152816102808501527f30644e72e131a029b85045b68181585d2833e84879b9709143e1f593f000000160e0610260850120068060c08601527f30644e72e131a029b85045b68181585d2833e84879b9709143e1f593f000000181820992508260e08601527f30644e72e131a029b85045b68181585d2833e84879b9709143e1f593f00000018184099250826101008601527f30644e72e131a029b85045b68181585d2833e84879b9709143e1f593f00000018184099250826101208601527f30644e72e131a029b85045b68181585d2833e84879b9709143e1f593f00000018184099250826101408601527f30644e72e131a029b85045b68181585d2833e84879b9709143e1f593f00000018184099250826101608601527f30644e72e131a029b85045b68181585d2833e84879b9709143e1f593f000000160806101e086012006610180860152505050505050565b60017f30644e72e131a029b85045b68181585d2833e84879b9709143e1f593f0000001807f30644e72e131a029b85045b68181585d2833e84879b9709143e1f593f00000018360608601510301066008096102a0830152610623600261028084016100c8565b610260820151600191507f30644e72e131a029b85045b68181585d2833e84879b9709143e1f593f0000001816102a0850151096102a0840152505050565b60007f30644e72e131a029b85045b68181585d2833e84879b9709143e1f593f0000001807f30644e72e131a029b85045b68181585d2833e84879b9709143e1f593f000000160208601516102a086015109830301069050806101a0830152505050565b60008060007f30644e72e131a029b85045b68181585d2833e84879b9709143e1f593f00000016101a08601516103208601510892507f30644e72e131a029b85045b68181585d2833e84879b9709143e1f593f000000160208601516102c08601510991507f30644e72e131a029b85045b68181585d2833e84879b9709143e1f593f0000001610260850151830891507f30644e72e131a029b85045b68181585d2833e84879b9709143e1f593f00000016040860151830891507f30644e72e131a029b85045b68181585d2833e84879b9709143e1f593f000000160208601516102e08601510990507f30644e72e131a029b85045b68181585d2833e84879b9709143e1f593f0000001610280850151820890507f30644e72e131a029b85045b68181585d2833e84879b9709143e1f593f00000016040860151820890507f30644e72e131a029b85045b68181585d2833e84879b9709143e1f593f000000181830991507f30644e72e131a029b85045b68181585d2833e84879b9709143e1f593f000000160408601516102a08601510890507f30644e72e131a029b85045b68181585d2833e84879b9709143e1f593f000000181830991507f30644e72e131a029b85045b68181585d2833e84879b9709143e1f593f0000001610300850151830991507f30644e72e131a029b85045b68181585d2833e84879b9709143e1f593f00000016000860151830991507f30644e72e131a029b85045b68181585d2833e84879b9709143e1f593f000000160008601516102a08701510990507f30644e72e131a029b85045b68181585d2833e84879b9709143e1f593f00000016000860151820990507f30644e72e131a029b85045b68181585d2833e84879b9709143e1f593f000000181830891507f30644e72e131a029b85045b68181585d2833e84879b9709143e1f593f0000001827f30644e72e131a029b85045b68181585d2833e84879b9709143e1f593f00000018501030692507f30644e72e131a029b85045b68181585d2833e84879b9709143e1f593f000000161028086015184099250826101c08601525050505050565b81518152602082015160208201525050565b6040518151815260208201516020820152825160408201526020830151606082015260408260808360066107d05a03fa80610a23576000805260206000f35b50505050565b6000604051835181526020840151602082015284604082015260408160608360076107d05a03fa915081610a61576000805260206000f35b825160408201526020830151606082015260408360808360066107d05a03fa915081610a91576000805260206000f35b5050505050565b600060405183815284602082015285604082015260408160608360076107d05a03fa915081610acb576000805260206000f35b825160408201526020830151606082015260408360808360066107d05a03fa915081610afb576000805260206000f35b505050505050565b600060405183815284602082015285604082015260408360608360076107d05a03fa915081610b36576000805260206000f35b505050505050565b6101e08201610b516101e08301826109d2565b610b65610180840151610220840183610a29565b505050565b60008061022084017f30644e72e131a029b85045b68181585d2833e84879b9709143e1f593f000000160c0860151610260860151099250610bed837f15d573fc890afebd6308281bf667988a2a7df914b371bc46645aeff185f42ab37f1f9be742471045cc436a97a2c8664790c8a99112bfd7c5cdbdb00c574342d28684610b03565b7f30644e72e131a029b85045b68181585d2833e84879b9709143e1f593f000000161028085015184099250610c64837f2c7443f0f601eb23b471a85ceff74d78e367419fd3f298277a85535c33e62aa87f22bb1727c66393c844d93f6d77020b03f64c980a9268302bffe5bc7ac93d112084610a98565b7f30644e72e131a029b85045b68181585d2833e84879b9709143e1f593f000000160c0860151610280860151099250610ca08360008084610a98565b7f30644e72e131a029b85045b68181585d2833e84879b9709143e1f593f000000160c08601516102a0860151099250610d1b837f03f00a81eb2fb50603de9d59918a0ae4b41a28f1947f3265c19b38baa496d29f7f22bb1727c66393c844d93f6d77020b03f64c980a9268302bffe5bc7ac93d112084610a98565b60c08501519250610d2f8360008084610a98565b7f30644e72e131a029b85045b68181585d2833e84879b9709143e1f593f000000160a08601516102608601510892507f30644e72e131a029b85045b68181585d2833e84879b9709143e1f593f00000016040860151840892507f30644e72e131a029b85045b68181585d2833e84879b9709143e1f593f000000160a086015160020991507f30644e72e131a029b85045b68181585d2833e84879b9709143e1f593f0000001610280850151830891507f30644e72e131a029b85045b68181585d2833e84879b9709143e1f593f00000016040860151830891507f30644e72e131a029b85045b68181585d2833e84879b9709143e1f593f000000182840992507f30644e72e131a029b85045b68181585d2833e84879b9709143e1f593f000000160a086015160030991507f30644e72e131a029b85045b68181585d2833e84879b9709143e1f593f00000016102a0850151830891507f30644e72e131a029b85045b68181585d2833e84879b9709143e1f593f00000016040860151830891507f30644e72e131a029b85045b68181585d2833e84879b9709143e1f593f000000182840992507f30644e72e131a029b85045b68181585d2833e84879b9709143e1f593f00000016000860151840992507f30644e72e131a029b85045b68181585d2833e84879b9709143e1f593f000000160c0860151840992507f30644e72e131a029b85045b68181585d2833e84879b9709143e1f593f000000160008601516102a08701510991507f30644e72e131a029b85045b68181585d2833e84879b9709143e1f593f00000016000860151830991507f30644e72e131a029b85045b68181585d2833e84879b9709143e1f593f000000160c0860151830991507f30644e72e131a029b85045b68181585d2833e84879b9709143e1f593f000000182840892507f30644e72e131a029b85045b68181585d2833e84879b9709143e1f593f00000016101808601518408925061100a8360e0860183610a29565b7f30644e72e131a029b85045b68181585d2833e84879b9709143e1f593f00000016102c085015160208701510992507f30644e72e131a029b85045b68181585d2833e84879b9709143e1f593f0000001610260850151840892507f30644e72e131a029b85045b68181585d2833e84879b9709143e1f593f00000016040860151840892507f30644e72e131a029b85045b68181585d2833e84879b9709143e1f593f00000016102e085015160208701510991507f30644e72e131a029b85045b68181585d2833e84879b9709143e1f593f0000001610280850151830891507f30644e72e131a029b85045b68181585d2833e84879b9709143e1f593f00000016040860151830891507f30644e72e131a029b85045b68181585d2833e84879b9709143e1f593f000000182840992507f30644e72e131a029b85045b68181585d2833e84879b9709143e1f593f00000016000860151840992507f30644e72e131a029b85045b68181585d2833e84879b9709143e1f593f000000160c0860151840992507f30644e72e131a029b85045b68181585d2833e84879b9709143e1f593f00000016020860151840992507f30644e72e131a029b85045b68181585d2833e84879b9709143e1f593f0000001610300850151840992507f30644e72e131a029b85045b68181585d2833e84879b9709143e1f593f0000001837f30644e72e131a029b85045b68181585d2833e84879b9709143e1f593f000000103069250611274837f20a8f626c13b0cf87264c251b66183b455871cfb5f8c9d38ef1f2274a91ce4087f24fcf9bc07c31680ad70801b367ec2ed4545587224025cf2422ad1e3dcf7b36b84610a98565b6112826101208501826109e4565b6080850151925061129883610160860183610a29565b7f30644e72e131a029b85045b68181585d2833e84879b9709143e1f593f000000183840992506112cd836101a0860183610a29565b6112df60e08601516020860183610a29565b6112f26101008601516060860183610a29565b61130561012086015160a0860183610a29565b6113566101408601517f193b54081718dae279572ba613b623a0d1ba88c4079d5663c29e86902573275a7f2c590aae783cb6d24bc6ebbb3d04ee1f7d54aee730df3d6e72a03da4f8b6f09d84610a98565b6113a76101608601517f2e3b7651b24b9536218e3f3568701fa1e3973c39a36551fa1190602a0031820f7f22c9bd283f14496d3dcae542cc29222a3312327434ac7c92e9997eff2bd503bd84610a98565b6101c085015192507f30644e72e131a029b85045b68181585d2833e84879b9709143e1f593f00000018060c087015161032087015109840892507f30644e72e131a029b85045b68181585d2833e84879b9709143e1f593f00000018060e087015161026087015109840892507f30644e72e131a029b85045b68181585d2833e84879b9709143e1f593f00000018061010087015161028087015109840892507f30644e72e131a029b85045b68181585d2833e84879b9709143e1f593f0000001806101208701516102a087015109840892507f30644e72e131a029b85045b68181585d2833e84879b9709143e1f593f0000001806101408701516102c087015109840892507f30644e72e131a029b85045b68181585d2833e84879b9709143e1f593f0000001806101608701516102e087015109840892507f30644e72e131a029b85045b68181585d2833e84879b9709143e1f593f00000018061018087015161030087015109840892507f30644e72e131a029b85045b68181585d2833e84879b9709143e1f593f0000001837f30644e72e131a029b85045b68181585d2833e84879b9709143e1f593f000000103069250611567836002600184610a98565b6060850151925061157d836101e0860183610a29565b7f30644e72e131a029b85045b68181585d2833e84879b9709143e1f593f000000160608601516101808701510992507f30644e72e131a029b85045b68181585d2833e84879b9709143e1f593f00000017f2b337de1c8c14f22ec9b9e2f96afef3652627366f8170a0a948dad4ac1bd5e808409925061160183610220860183610a29565b5050505050565b60006040516101e0830151815260206101e08401015160208201527f26186a2d65ee4d2f9c9a5b91f86597d35f192cd120caf7e935d8443d1938e23d60408201527f30441fd1b5d3370482c42152a8899027716989a6996c2535bc9f7fee8aaef79e60608201527f1970ea81dd6992adfbc571effb03503adbbb6a857f578403c6c40e22d65b3c0260808201527f054793348f12c0cf5622c340573cb277586319de359ab9389778f689786b1e4860a082015261022083015160c08201526020610220840101517f30644e72e131a029b85045b68181585d97816a916871ca8d3c208c16d87cfd47817f30644e72e131a029b85045b68181585d97816a916871ca8d3c208c16d87cfd47030690508060e08301527f198e9393920d483a7260bfb731fb5d25f1aa493335a9e71297e485b7aef312c26101008301527f1800deef121f1e76426a00665e5c4479674322d4f75edadd46debd5cd992f6ed6101208301527f090689d0585ff075ec9e99ad690c3395bc4b313370b38ef355acdadcd122975b6101408301527f12c85ea5db8c6deb4aab71808dcb408fe3d1e7690c43d37b4ce6cc0166fa7daa6101608301526020826101808460086107d05a03fa825181169350505050919050565b6040516102c081016040526117e984610206565b6117f483828661027f565b6117fd816105bd565b6118078382610661565b61181181856106c4565b61181b8185610b3e565b6118258185610b6a565b61182e81611608565b6102c082036040528060005260206000f35b600061185361184e84611a0e565b6119e9565b9050808382526020820190508285602086028201111561187257600080fd5b60005b858110156118a25781611888888261193e565b845260208401935060208301925050600181019050611875565b5050509392505050565b60006118bf6118ba84611a3a565b6119e9565b9050828152602081018484840111156118d757600080fd5b6118e2848285611a81565b509392505050565b600082601f8301126118fb57600080fd5b813561190b848260208601611840565b91505092915050565b600082601f83011261192557600080fd5b81356119358482602086016118ac565b91505092915050565b60008135905061194d81611b01565b92915050565b6000806040838503121561196657600080fd5b600083013567ffffffffffffffff81111561198057600080fd5b61198c85828601611914565b925050602083013567ffffffffffffffff8111156119a957600080fd5b6119b5858286016118ea565b9150509250929050565b6119c881611a6b565b82525050565b60006020820190506119e360008301846119bf565b92915050565b60006119f3611a04565b90506119ff8282611a90565b919050565b6000604051905090565b600067ffffffffffffffff821115611a2957611a28611ac1565b5b602082029050602081019050919050565b600067ffffffffffffffff821115611a5557611a54611ac1565b5b611a5e82611af0565b9050602081019050919050565b60008115159050919050565b6000819050919050565b82818337600083830152505050565b611a9982611af0565b810181811067ffffffffffffffff82111715611ab857611ab7611ac1565b5b80604052505050565b7f4e487b7100000000000000000000000000000000000000000000000000000000600052604160045260246000fd5b6000601f19601f8301169050919050565b611b0a81611a77565b8114611b1557600080fd5b5056fea26469706673582212204a3a0ed5993fbe8b23909639de08a63058c4ee53c9b60e858db1c71b80f3f1d664736f6c63430008040033",
  "linkReferences": {},
  "deployedLinkReferences": {}
}