{
  "_format": "hh-sol-artifact-1",
  "contractName": "SystemOfEquationsVerifier",
  "sourceName": "contracts/SystemOfEquationsVerifier.sol",
  "abi": [
    {
      "inputs": [
        {
          "internalType": "uint256[2]",
          "name": "a",
          "type": "uint256[2]"
        },
        {
          "internalType": "uint256[2][2]",
          "name": "b",
          "type": "uint256[2][2]"
        },
        {
          "internalType": "uint256[2]",
          "name": "c",
          "type": "uint256[2]"
        },
        {
          "internalType": "uint256[13]",
          "name": "input",
          "type": "uint256[13]"
        }
      ],
      "name": "verifyProof",
      "outputs": [
        {
          "internalType": "bool",
          "name": "r",
          "type": "bool"
        }
      ],
      "stateMutability": "view",
      "type": "function"
    }
  ],
  "bytecode": "0x608060405234801561001057600080fd5b50612a0c806100206000396000f3fe608060405234801561001057600080fd5b506004361061002b5760003560e01c8063f143a75e14610030575b600080fd5b61004a600480360381019061004591906123bd565b610060565b6040516100579190612503565b60405180910390f35b600061006a6120c8565b6040518060400160405280876000600281106100af577f4e487b7100000000000000000000000000000000000000000000000000000000600052603260045260246000fd5b60200201518152602001876001600281106100f3577f4e487b7100000000000000000000000000000000000000000000000000000000600052603260045260246000fd5b602002015181525081600001819052506040518060400160405280604051806040016040528088600060028110610153577f4e487b7100000000000000000000000000000000000000000000000000000000600052603260045260246000fd5b6020020151600060028110610191577f4e487b7100000000000000000000000000000000000000000000000000000000600052603260045260246000fd5b60200201518152602001886000600281106101d5577f4e487b7100000000000000000000000000000000000000000000000000000000600052603260045260246000fd5b6020020151600160028110610213577f4e487b7100000000000000000000000000000000000000000000000000000000600052603260045260246000fd5b60200201518152508152602001604051806040016040528088600160028110610265577f4e487b7100000000000000000000000000000000000000000000000000000000600052603260045260246000fd5b60200201516000600281106102a3577f4e487b7100000000000000000000000000000000000000000000000000000000600052603260045260246000fd5b60200201518152602001886001600281106102e7577f4e487b7100000000000000000000000000000000000000000000000000000000600052603260045260246000fd5b6020020151600160028110610325577f4e487b7100000000000000000000000000000000000000000000000000000000600052603260045260246000fd5b6020020151815250815250816020018190525060405180604001604052808560006002811061037d577f4e487b7100000000000000000000000000000000000000000000000000000000600052603260045260246000fd5b60200201518152602001856001600281106103c1577f4e487b7100000000000000000000000000000000000000000000000000000000600052603260045260246000fd5b602002015181525081604001819052506000600d67ffffffffffffffff811115610414577f4e487b7100000000000000000000000000000000000000000000000000000000600052604160045260246000fd5b6040519080825280602002602001820160405280156104425781602001602082028036833780820191505090505b50905060005b600d8110156104e7578481600d811061048a577f4e487b7100000000000000000000000000000000000000000000000000000000600052603260045260246000fd5b60200201518282815181106104c8577f4e487b7100000000000000000000000000000000000000000000000000000000600052603260045260246000fd5b60200260200101818152505080806104df906127b1565b915050610448565b5060006104f48284610514565b14156105055760019250505061050c565b6000925050505b949350505050565b6000807f30644e72e131a029b85045b68181585d2833e84879b9709143e1f593f00000019050600061054461079f565b90508060800151516001865161055a9190612686565b1461059a576040517f08c379a00000000000000000000000000000000000000000000000000000000081526004016105919061251e565b60405180910390fd5b60006040518060400160405280600081526020016000815250905060005b86518110156106fb57838782815181106105fb577f4e487b7100000000000000000000000000000000000000000000000000000000600052603260045260246000fd5b602002602001015110610643576040517f08c379a000000000000000000000000000000000000000000000000000000000815260040161063a9061255e565b60405180910390fd5b6106e6826106e1856080015160018561065c9190612686565b81518110610693577f4e487b7100000000000000000000000000000000000000000000000000000000600052603260045260246000fd5b60200260200101518a85815181106106d4577f4e487b7100000000000000000000000000000000000000000000000000000000600052603260045260246000fd5b602002602001015161137d565b6114cc565b915080806106f3906127b1565b9150506105b8565b5061074b81836080015160008151811061073e577f4e487b7100000000000000000000000000000000000000000000000000000000600052603260045260246000fd5b60200260200101516114cc565b905061078161075d8660000151611667565b8660200151846000015185602001518587604001518b60400151896060015161170c565b6107915760019350505050610799565b600093505050505b92915050565b6107a76120fb565b60405180604001604052807f2d4d9aa7e302d9df41749d5507949d05dbea33fbb16c643b22f599a2be6df2e281526020017f14bedd503c37ceb061d8ec60209fe345ce89830a19230301f076caff004d19268152508160000181905250604051806040016040528060405180604001604052807f0967032fcbf776d1afc985f88877f182d38480a653f2decaa9794cbc3bf3060c81526020017f0e187847ad4c798374d0d6732bf501847dd68bc0e071241e0213bc7fc13db7ab815250815260200160405180604001604052807f304cfbd1e08a704a99f5e847d93f8c3caafddec46b7a0d379da69a4d112346a781526020017f1739c1b1a457a8c7313123d24d2f9192f896b7c63eea05a9d57f06547ad0cec88152508152508160200181905250604051806040016040528060405180604001604052807f198e9393920d483a7260bfb731fb5d25f1aa493335a9e71297e485b7aef312c281526020017f1800deef121f1e76426a00665e5c4479674322d4f75edadd46debd5cd992f6ed815250815260200160405180604001604052807f090689d0585ff075ec9e99ad690c3395bc4b313370b38ef355acdadcd122975b81526020017f12c85ea5db8c6deb4aab71808dcb408fe3d1e7690c43d37b4ce6cc0166fa7daa8152508152508160400181905250604051806040016040528060405180604001604052807f3015ce2f43aa475d29c622278a41cf7ab67225235925eecaecc4162760792d1081526020017f2fadde6c1429103731205405f1a9813531682ba5cfd55d4751bb2a82d54cce1f815250815260200160405180604001604052807f0f92e4e7e7c762035deceff86a3ab26b6c4f90d3ff7eeb134678839ebeb0fcad81526020017f09fec2e26d79e5a41093cd1b4791690fef63c836a8641f06d2e4f3582cd713218152508152508160600181905250600e67ffffffffffffffff811115610a94577f4e487b7100000000000000000000000000000000000000000000000000000000600052604160045260246000fd5b604051908082528060200260200182016040528015610acd57816020015b610aba612142565b815260200190600190039081610ab25790505b50816080018190525060405180604001604052807f033e81c6f3d112baae6e30aff0c84fabeaffa207e9456df3af4b3b2231f2a45981526020017f1ac763bdf8ba1b0b7447146d6d194b041d1a7791c9984b3ba0931c4d2d8e80358152508160800151600081518110610b69577f4e487b7100000000000000000000000000000000000000000000000000000000600052603260045260246000fd5b602002602001018190525060405180604001604052807f21000df59b97d34aa6e27fc60537457cd3ccae91db9588cfec9fed6d5288711181526020017f097ef0a299421e4f95b114c0f531f59fb198f16fd200431287918b6ecda797518152508160800151600181518110610c07577f4e487b7100000000000000000000000000000000000000000000000000000000600052603260045260246000fd5b602002602001018190525060405180604001604052807f21c3c2b47b247e292d786924420b67f8934a264f578ba2637c5a4a8dc27ff4bc81526020017f06c6c1fec10e41381be0870952fd7369a82bd32f75e500ec1b938b3847355f1d8152508160800151600281518110610ca5577f4e487b7100000000000000000000000000000000000000000000000000000000600052603260045260246000fd5b602002602001018190525060405180604001604052807f283d982bcd9614f66186d7eed219f0a0a05a21fb5e0143f1da05369704effdaf81526020017f0716a9c7df0edeab91fe56c2e9ae19701ad873c0ee6448ffb5380c7f1f5b94cb8152508160800151600381518110610d43577f4e487b7100000000000000000000000000000000000000000000000000000000600052603260045260246000fd5b602002602001018190525060405180604001604052807f1ceaedef694daee0247f8f26f889e00b3ac819489fc1d871aeb3d9f33c9c383281526020017f10f7b22a2c88e4df6c3b17043a99782c448f91291c1445bca350d531e911c3ef8152508160800151600481518110610de1577f4e487b7100000000000000000000000000000000000000000000000000000000600052603260045260246000fd5b602002602001018190525060405180604001604052807f23ce3a2ad0575b04a820070fcf3c8009fbb2f13055e37d3bbd378ae0ecc99afd81526020017f13e2bc32b1e50df4449cc523cfa98ca6bd2e9ab2f5441b80c22d4289af56ce728152508160800151600581518110610e7f577f4e487b7100000000000000000000000000000000000000000000000000000000600052603260045260246000fd5b602002602001018190525060405180604001604052807f01ae18d022044019545507172cc156df0e684fc2c12c50cf47fa9302293a9f6581526020017f07cf04d11e961a3c9dc55e8624967d6689c7e47a08883573562dafbbf22abd088152508160800151600681518110610f1d577f4e487b7100000000000000000000000000000000000000000000000000000000600052603260045260246000fd5b602002602001018190525060405180604001604052807f290b5bc5cc7f24249c0e7e1a44e492cb8e7dd84a8fb6c6170ef94be8eaf1a2a881526020017f1e9f30c8dc1aa9624883f5df0006ebe6de17be3b328a1988616861571f57ed818152508160800151600781518110610fbb577f4e487b7100000000000000000000000000000000000000000000000000000000600052603260045260246000fd5b602002602001018190525060405180604001604052807f0ad52c58dd8fcd8ac8d3f2f9004f8478e65b7a592f208ab90e211b69a6005dcd81526020017f25331fce6035444d5ee18be5c9ff328d84b7e4517fc444585d97bc6919b1a91c8152508160800151600881518110611059577f4e487b7100000000000000000000000000000000000000000000000000000000600052603260045260246000fd5b602002602001018190525060405180604001604052807f15d0acb40d8e7d97a0798f21057dea220804be6b40d58ca06391fd630d332d3e81526020017f1194619ee943984e7f0fb6fa65a0da1d62051d3e4fb929b5b644e79e2e4f2cea81525081608001516009815181106110f7577f4e487b7100000000000000000000000000000000000000000000000000000000600052603260045260246000fd5b602002602001018190525060405180604001604052807f1dfc2ab1b4265b21f6224581b8ba7ecc7c3f066dc989f504e044f9eb2588ad6381526020017f0ed8a8d4426b737d0260c0c8aea00f11342dd6fa8c97cf537847263c8a95f1998152508160800151600a81518110611195577f4e487b7100000000000000000000000000000000000000000000000000000000600052603260045260246000fd5b602002602001018190525060405180604001604052807f2e94249dd9c121b2cb15eb0b38c4f0a4b219666b918d29286d6ee85e76d4f54681526020017f1a99f59dce564fafb37e6ae58c0c31b8ac1acc9dfdf04022777e4d3e3d4c94948152508160800151600b81518110611233577f4e487b7100000000000000000000000000000000000000000000000000000000600052603260045260246000fd5b602002602001018190525060405180604001604052807f01505446ef000d1366fb562453c31d2d7ac084c2f3425e74f51025e76173153e81526020017f1e3de5c952756d90d0af5584e645aeb9251774ab7a960e5922081a4015a9c7458152508160800151600c815181106112d1577f4e487b7100000000000000000000000000000000000000000000000000000000600052603260045260246000fd5b602002602001018190525060405180604001604052807f0ff6ad2f171f82352f3d6a4de5cb7ec9419504113aaa1245dd41b0fbea67cab981526020017f27adfc2ed724052ecd41053a443784157f0f4165c685ad5f3624c1707a153fbd8152508160800151600d8151811061136f577f4e487b7100000000000000000000000000000000000000000000000000000000600052603260045260246000fd5b602002602001018190525090565b611385612142565b61138d61215c565b8360000151816000600381106113cc577f4e487b7100000000000000000000000000000000000000000000000000000000600052603260045260246000fd5b602002018181525050836020015181600160038110611414577f4e487b7100000000000000000000000000000000000000000000000000000000600052603260045260246000fd5b6020020181815250508281600260038110611458577f4e487b7100000000000000000000000000000000000000000000000000000000600052603260045260246000fd5b602002018181525050600060608360808460076107d05a03fa9050806000811461148157611483565bfe5b50806114c4576040517f08c379a00000000000000000000000000000000000000000000000000000000081526004016114bb9061253e565b60405180910390fd5b505092915050565b6114d4612142565b6114dc61217e565b83600001518160006004811061151b577f4e487b7100000000000000000000000000000000000000000000000000000000600052603260045260246000fd5b602002018181525050836020015181600160048110611563577f4e487b7100000000000000000000000000000000000000000000000000000000600052603260045260246000fd5b6020020181815250508260000151816002600481106115ab577f4e487b7100000000000000000000000000000000000000000000000000000000600052603260045260246000fd5b6020020181815250508260200151816003600481106115f3577f4e487b7100000000000000000000000000000000000000000000000000000000600052603260045260246000fd5b602002018181525050600060608360c08460066107d05a03fa9050806000811461161c5761161e565bfe5b508061165f576040517f08c379a00000000000000000000000000000000000000000000000000000000081526004016116569061259e565b60405180910390fd5b505092915050565b61166f612142565b60007f30644e72e131a029b85045b68181585d97816a916871ca8d3c208c16d87cfd479050600083600001511480156116ac575060008360200151145b156116d0576040518060400160405280600081526020016000815250915050611707565b6040518060400160405280846000015181526020018285602001516116f591906127fa565b836117009190612736565b8152509150505b919050565b600080600467ffffffffffffffff811115611750577f4e487b7100000000000000000000000000000000000000000000000000000000600052604160045260246000fd5b60405190808252806020026020018201604052801561178957816020015b611776612142565b81526020019060019003908161176e5790505b5090506000600467ffffffffffffffff8111156117cf577f4e487b7100000000000000000000000000000000000000000000000000000000600052604160045260246000fd5b60405190808252806020026020018201604052801561180857816020015b6117f56121a0565b8152602001906001900390816117ed5790505b5090508a82600081518110611846577f4e487b7100000000000000000000000000000000000000000000000000000000600052603260045260246000fd5b6020026020010181905250888260018151811061188c577f4e487b7100000000000000000000000000000000000000000000000000000000600052603260045260246000fd5b602002602001018190525086826002815181106118d2577f4e487b7100000000000000000000000000000000000000000000000000000000600052603260045260246000fd5b60200260200101819052508482600381518110611918577f4e487b7100000000000000000000000000000000000000000000000000000000600052603260045260246000fd5b6020026020010181905250898160008151811061195e577f4e487b7100000000000000000000000000000000000000000000000000000000600052603260045260246000fd5b602002602001018190525087816001815181106119a4577f4e487b7100000000000000000000000000000000000000000000000000000000600052603260045260246000fd5b602002602001018190525085816002815181106119ea577f4e487b7100000000000000000000000000000000000000000000000000000000600052603260045260246000fd5b60200260200101819052508381600381518110611a30577f4e487b7100000000000000000000000000000000000000000000000000000000600052603260045260246000fd5b6020026020010181905250611a458282611a55565b9250505098975050505050505050565b60008151835114611a9b576040517f08c379a0000000000000000000000000000000000000000000000000000000008152600401611a929061257e565b60405180910390fd5b6000835190506000600682611ab091906126dc565b905060008167ffffffffffffffff811115611af4577f4e487b7100000000000000000000000000000000000000000000000000000000600052604160045260246000fd5b604051908082528060200260200182016040528015611b225781602001602082028036833780820191505090505b50905060005b8381101561200757868181518110611b69577f4e487b7100000000000000000000000000000000000000000000000000000000600052603260045260246000fd5b602002602001015160000151826000600684611b8591906126dc565b611b8f9190612686565b81518110611bc6577f4e487b7100000000000000000000000000000000000000000000000000000000600052603260045260246000fd5b602002602001018181525050868181518110611c0b577f4e487b7100000000000000000000000000000000000000000000000000000000600052603260045260246000fd5b602002602001015160200151826001600684611c2791906126dc565b611c319190612686565b81518110611c68577f4e487b7100000000000000000000000000000000000000000000000000000000600052603260045260246000fd5b602002602001018181525050858181518110611cad577f4e487b7100000000000000000000000000000000000000000000000000000000600052603260045260246000fd5b602002602001015160000151600060028110611cf2577f4e487b7100000000000000000000000000000000000000000000000000000000600052603260045260246000fd5b6020020151826002600684611d0791906126dc565b611d119190612686565b81518110611d48577f4e487b7100000000000000000000000000000000000000000000000000000000600052603260045260246000fd5b602002602001018181525050858181518110611d8d577f4e487b7100000000000000000000000000000000000000000000000000000000600052603260045260246000fd5b602002602001015160000151600160028110611dd2577f4e487b7100000000000000000000000000000000000000000000000000000000600052603260045260246000fd5b6020020151826003600684611de791906126dc565b611df19190612686565b81518110611e28577f4e487b7100000000000000000000000000000000000000000000000000000000600052603260045260246000fd5b602002602001018181525050858181518110611e6d577f4e487b7100000000000000000000000000000000000000000000000000000000600052603260045260246000fd5b602002602001015160200151600060028110611eb2577f4e487b7100000000000000000000000000000000000000000000000000000000600052603260045260246000fd5b6020020151826004600684611ec791906126dc565b611ed19190612686565b81518110611f08577f4e487b7100000000000000000000000000000000000000000000000000000000600052603260045260246000fd5b602002602001018181525050858181518110611f4d577f4e487b7100000000000000000000000000000000000000000000000000000000600052603260045260246000fd5b602002602001015160200151600160028110611f92577f4e487b7100000000000000000000000000000000000000000000000000000000600052603260045260246000fd5b6020020151826005600684611fa791906126dc565b611fb19190612686565b81518110611fe8577f4e487b7100000000000000000000000000000000000000000000000000000000600052603260045260246000fd5b6020026020010181815250508080611fff906127b1565b915050611b28565b506120106121c6565b6000602082602086026020860160086107d05a03fa9050806000811461203557612037565bfe5b5080612078576040517f08c379a000000000000000000000000000000000000000000000000000000000815260040161206f906125be565b60405180910390fd5b6000826000600181106120b4577f4e487b7100000000000000000000000000000000000000000000000000000000600052603260045260246000fd5b602002015114159550505050505092915050565b60405180606001604052806120db612142565b81526020016120e86121a0565b81526020016120f5612142565b81525090565b6040518060a0016040528061210e612142565b815260200161211b6121a0565b81526020016121286121a0565b81526020016121356121a0565b8152602001606081525090565b604051806040016040528060008152602001600081525090565b6040518060600160405280600390602082028036833780820191505090505090565b6040518060800160405280600490602082028036833780820191505090505090565b60405180604001604052806121b36121e8565b81526020016121c06121e8565b81525090565b6040518060200160405280600190602082028036833780820191505090505090565b6040518060400160405280600290602082028036833780820191505090505090565b600061221d61221884612603565b6125de565b9050808285604086028201111561223357600080fd5b60005b8581101561226357816122498882612381565b845260208401935060408301925050600181019050612236565b5050509392505050565b600061228061227b84612629565b6125de565b9050808285602086028201111561229657600080fd5b60005b858110156122c657816122ac88826123a8565b845260208401935060208301925050600181019050612299565b5050509392505050565b60006122e36122de8461264f565b6125de565b905080828560208602820111156122f957600080fd5b60005b85811015612329578161230f88826123a8565b8452602084019350602083019250506001810190506122fc565b5050509392505050565b600082601f83011261234457600080fd5b600261235184828561220a565b91505092915050565b600082601f83011261236b57600080fd5b600d61237884828561226d565b91505092915050565b600082601f83011261239257600080fd5b600261239f8482856122d0565b91505092915050565b6000813590506123b7816129bf565b92915050565b6000806000806102a085870312156123d457600080fd5b60006123e287828801612381565b94505060406123f387828801612333565b93505060c061240487828801612381565b9250506101006124168782880161235a565b91505092959194509250565b61242b8161276a565b82525050565b600061243e601283612675565b9150612449826128c9565b602082019050919050565b6000612461601283612675565b915061246c826128f2565b602082019050919050565b6000612484601f83612675565b915061248f8261291b565b602082019050919050565b60006124a7601683612675565b91506124b282612944565b602082019050919050565b60006124ca601283612675565b91506124d58261296d565b602082019050919050565b60006124ed601583612675565b91506124f882612996565b602082019050919050565b60006020820190506125186000830184612422565b92915050565b6000602082019050818103600083015261253781612431565b9050919050565b6000602082019050818103600083015261255781612454565b9050919050565b6000602082019050818103600083015261257781612477565b9050919050565b600060208201905081810360008301526125978161249a565b9050919050565b600060208201905081810360008301526125b7816124bd565b9050919050565b600060208201905081810360008301526125d7816124e0565b9050919050565b60006125e86125f9565b90506125f48282612780565b919050565b6000604051905090565b600067ffffffffffffffff82111561261e5761261d612889565b5b602082029050919050565b600067ffffffffffffffff82111561264457612643612889565b5b602082029050919050565b600067ffffffffffffffff82111561266a57612669612889565b5b602082029050919050565b600082825260208201905092915050565b600061269182612776565b915061269c83612776565b9250827fffffffffffffffffffffffffffffffffffffffffffffffffffffffffffffffff038211156126d1576126d061282b565b5b828201905092915050565b60006126e782612776565b91506126f283612776565b9250817fffffffffffffffffffffffffffffffffffffffffffffffffffffffffffffffff048311821515161561272b5761272a61282b565b5b828202905092915050565b600061274182612776565b915061274c83612776565b92508282101561275f5761275e61282b565b5b828203905092915050565b60008115159050919050565b6000819050919050565b612789826128b8565b810181811067ffffffffffffffff821117156127a8576127a7612889565b5b80604052505050565b60006127bc82612776565b91507fffffffffffffffffffffffffffffffffffffffffffffffffffffffffffffffff8214156127ef576127ee61282b565b5b600182019050919050565b600061280582612776565b915061281083612776565b9250826128205761281f61285a565b5b828206905092915050565b7f4e487b7100000000000000000000000000000000000000000000000000000000600052601160045260246000fd5b7f4e487b7100000000000000000000000000000000000000000000000000000000600052601260045260246000fd5b7f4e487b7100000000000000000000000000000000000000000000000000000000600052604160045260246000fd5b6000601f19601f8301169050919050565b7f76657269666965722d6261642d696e7075740000000000000000000000000000600082015250565b7f70616972696e672d6d756c2d6661696c65640000000000000000000000000000600082015250565b7f76657269666965722d6774652d736e61726b2d7363616c61722d6669656c6400600082015250565b7f70616972696e672d6c656e677468732d6661696c656400000000000000000000600082015250565b7f70616972696e672d6164642d6661696c65640000000000000000000000000000600082015250565b7f70616972696e672d6f70636f64652d6661696c65640000000000000000000000600082015250565b6129c881612776565b81146129d357600080fd5b5056fea2646970667358221220cdc69703245bca402197e1b703376e7c86eacd417bdb15acf4995b78d6f7c67764736f6c63430008040033",
  "linkReferences": {},
  "deployedLinkReferences": {}
}