{
  "contracts/SystemOfEquationsVerifier.sol": {
    "SystemOfEquationsVerifier": {
      "abi": [
        {
          "inputs": [
            {
              "internalType": "uint256[2]",
              "name": "a",
              "type": "uint256[2]"
            },
            {
              "internalType": "uint256[2][2]",
              "name": "b",
              "type": "uint256[2][2]"
            },
            {
              "internalType": "uint256[2]",
              "name": "c",
              "type": "uint256[2]"
            },
            {
              "internalType": "uint256[13]",
              "name": "input",
              "type": "uint256[13]"
            }
          ],
          "name": "verifyProof",
          "outputs": [
            {
              "internalType": "bool",
              "name": "r",
              "type": "bool"
            }
          ],
          "stateMutability": "view",
          "type": "function"
        }
      ],
      "evm": {
        "bytecode": {
          "linkReferences": {},
          "object": "608060405234801561001057600080fd5b50612a0c806100206000396000f3fe608060405234801561001057600080fd5b506004361061002b5760003560e01c8063f143a75e14610030575b600080fd5b61004a600480360381019061004591906123bd565b610060565b6040516100579190612503565b60405180910390f35b600061006a6120c8565b6040518060400160405280876000600281106100af577f4e487b7100000000000000000000000000000000000000000000000000000000600052603260045260246000fd5b60200201518152602001876001600281106100f3577f4e487b7100000000000000000000000000000000000000000000000000000000600052603260045260246000fd5b602002015181525081600001819052506040518060400160405280604051806040016040528088600060028110610153577f4e487b7100000000000000000000000000000000000000000000000000000000600052603260045260246000fd5b6020020151600060028110610191577f4e487b7100000000000000000000000000000000000000000000000000000000600052603260045260246000fd5b60200201518152602001886000600281106101d5577f4e487b7100000000000000000000000000000000000000000000000000000000600052603260045260246000fd5b6020020151600160028110610213577f4e487b7100000000000000000000000000000000000000000000000000000000600052603260045260246000fd5b60200201518152508152602001604051806040016040528088600160028110610265577f4e487b7100000000000000000000000000000000000000000000000000000000600052603260045260246000fd5b60200201516000600281106102a3577f4e487b7100000000000000000000000000000000000000000000000000000000600052603260045260246000fd5b60200201518152602001886001600281106102e7577f4e487b7100000000000000000000000000000000000000000000000000000000600052603260045260246000fd5b6020020151600160028110610325577f4e487b7100000000000000000000000000000000000000000000000000000000600052603260045260246000fd5b6020020151815250815250816020018190525060405180604001604052808560006002811061037d577f4e487b7100000000000000000000000000000000000000000000000000000000600052603260045260246000fd5b60200201518152602001856001600281106103c1577f4e487b7100000000000000000000000000000000000000000000000000000000600052603260045260246000fd5b602002015181525081604001819052506000600d67ffffffffffffffff811115610414577f4e487b7100000000000000000000000000000000000000000000000000000000600052604160045260246000fd5b6040519080825280602002602001820160405280156104425781602001602082028036833780820191505090505b50905060005b600d8110156104e7578481600d811061048a577f4e487b7100000000000000000000000000000000000000000000000000000000600052603260045260246000fd5b60200201518282815181106104c8577f4e487b7100000000000000000000000000000000000000000000000000000000600052603260045260246000fd5b60200260200101818152505080806104df906127b1565b915050610448565b5060006104f48284610514565b14156105055760019250505061050c565b6000925050505b949350505050565b6000807f30644e72e131a029b85045b68181585d2833e84879b9709143e1f593f00000019050600061054461079f565b90508060800151516001865161055a9190612686565b1461059a576040517f08c379a00000000000000000000000000000000000000000000000000000000081526004016105919061251e565b60405180910390fd5b60006040518060400160405280600081526020016000815250905060005b86518110156106fb57838782815181106105fb577f4e487b7100000000000000000000000000000000000000000000000000000000600052603260045260246000fd5b602002602001015110610643576040517f08c379a000000000000000000000000000000000000000000000000000000000815260040161063a9061255e565b60405180910390fd5b6106e6826106e1856080015160018561065c9190612686565b81518110610693577f4e487b7100000000000000000000000000000000000000000000000000000000600052603260045260246000fd5b60200260200101518a85815181106106d4577f4e487b7100000000000000000000000000000000000000000000000000000000600052603260045260246000fd5b602002602001015161137d565b6114cc565b915080806106f3906127b1565b9150506105b8565b5061074b81836080015160008151811061073e577f4e487b7100000000000000000000000000000000000000000000000000000000600052603260045260246000fd5b60200260200101516114cc565b905061078161075d8660000151611667565b8660200151846000015185602001518587604001518b60400151896060015161170c565b6107915760019350505050610799565b600093505050505b92915050565b6107a76120fb565b60405180604001604052807f2d4d9aa7e302d9df41749d5507949d05dbea33fbb16c643b22f599a2be6df2e281526020017f14bedd503c37ceb061d8ec60209fe345ce89830a19230301f076caff004d19268152508160000181905250604051806040016040528060405180604001604052807f0967032fcbf776d1afc985f88877f182d38480a653f2decaa9794cbc3bf3060c81526020017f0e187847ad4c798374d0d6732bf501847dd68bc0e071241e0213bc7fc13db7ab815250815260200160405180604001604052807f304cfbd1e08a704a99f5e847d93f8c3caafddec46b7a0d379da69a4d112346a781526020017f1739c1b1a457a8c7313123d24d2f9192f896b7c63eea05a9d57f06547ad0cec88152508152508160200181905250604051806040016040528060405180604001604052807f198e9393920d483a7260bfb731fb5d25f1aa493335a9e71297e485b7aef312c281526020017f1800deef121f1e76426a00665e5c4479674322d4f75edadd46debd5cd992f6ed815250815260200160405180604001604052807f090689d0585ff075ec9e99ad690c3395bc4b313370b38ef355acdadcd122975b81526020017f12c85ea5db8c6deb4aab71808dcb408fe3d1e7690c43d37b4ce6cc0166fa7daa8152508152508160400181905250604051806040016040528060405180604001604052807f3015ce2f43aa475d29c622278a41cf7ab67225235925eecaecc4162760792d1081526020017f2fadde6c1429103731205405f1a9813531682ba5cfd55d4751bb2a82d54cce1f815250815260200160405180604001604052807f0f92e4e7e7c762035deceff86a3ab26b6c4f90d3ff7eeb134678839ebeb0fcad81526020017f09fec2e26d79e5a41093cd1b4791690fef63c836a8641f06d2e4f3582cd713218152508152508160600181905250600e67ffffffffffffffff811115610a94577f4e487b7100000000000000000000000000000000000000000000000000000000600052604160045260246000fd5b604051908082528060200260200182016040528015610acd57816020015b610aba612142565b815260200190600190039081610ab25790505b50816080018190525060405180604001604052807f033e81c6f3d112baae6e30aff0c84fabeaffa207e9456df3af4b3b2231f2a45981526020017f1ac763bdf8ba1b0b7447146d6d194b041d1a7791c9984b3ba0931c4d2d8e80358152508160800151600081518110610b69577f4e487b7100000000000000000000000000000000000000000000000000000000600052603260045260246000fd5b602002602001018190525060405180604001604052807f21000df59b97d34aa6e27fc60537457cd3ccae91db9588cfec9fed6d5288711181526020017f097ef0a299421e4f95b114c0f531f59fb198f16fd200431287918b6ecda797518152508160800151600181518110610c07577f4e487b7100000000000000000000000000000000000000000000000000000000600052603260045260246000fd5b602002602001018190525060405180604001604052807f21c3c2b47b247e292d786924420b67f8934a264f578ba2637c5a4a8dc27ff4bc81526020017f06c6c1fec10e41381be0870952fd7369a82bd32f75e500ec1b938b3847355f1d8152508160800151600281518110610ca5577f4e487b7100000000000000000000000000000000000000000000000000000000600052603260045260246000fd5b602002602001018190525060405180604001604052807f283d982bcd9614f66186d7eed219f0a0a05a21fb5e0143f1da05369704effdaf81526020017f0716a9c7df0edeab91fe56c2e9ae19701ad873c0ee6448ffb5380c7f1f5b94cb8152508160800151600381518110610d43577f4e487b7100000000000000000000000000000000000000000000000000000000600052603260045260246000fd5b602002602001018190525060405180604001604052807f1ceaedef694daee0247f8f26f889e00b3ac819489fc1d871aeb3d9f33c9c383281526020017f10f7b22a2c88e4df6c3b17043a99782c448f91291c1445bca350d531e911c3ef8152508160800151600481518110610de1577f4e487b7100000000000000000000000000000000000000000000000000000000600052603260045260246000fd5b602002602001018190525060405180604001604052807f23ce3a2ad0575b04a820070fcf3c8009fbb2f13055e37d3bbd378ae0ecc99afd81526020017f13e2bc32b1e50df4449cc523cfa98ca6bd2e9ab2f5441b80c22d4289af56ce728152508160800151600581518110610e7f577f4e487b7100000000000000000000000000000000000000000000000000000000600052603260045260246000fd5b602002602001018190525060405180604001604052807f01ae18d022044019545507172cc156df0e684fc2c12c50cf47fa9302293a9f6581526020017f07cf04d11e961a3c9dc55e8624967d6689c7e47a08883573562dafbbf22abd088152508160800151600681518110610f1d577f4e487b7100000000000000000000000000000000000000000000000000000000600052603260045260246000fd5b602002602001018190525060405180604001604052807f290b5bc5cc7f24249c0e7e1a44e492cb8e7dd84a8fb6c6170ef94be8eaf1a2a881526020017f1e9f30c8dc1aa9624883f5df0006ebe6de17be3b328a1988616861571f57ed818152508160800151600781518110610fbb577f4e487b7100000000000000000000000000000000000000000000000000000000600052603260045260246000fd5b602002602001018190525060405180604001604052807f0ad52c58dd8fcd8ac8d3f2f9004f8478e65b7a592f208ab90e211b69a6005dcd81526020017f25331fce6035444d5ee18be5c9ff328d84b7e4517fc444585d97bc6919b1a91c8152508160800151600881518110611059577f4e487b7100000000000000000000000000000000000000000000000000000000600052603260045260246000fd5b602002602001018190525060405180604001604052807f15d0acb40d8e7d97a0798f21057dea220804be6b40d58ca06391fd630d332d3e81526020017f1194619ee943984e7f0fb6fa65a0da1d62051d3e4fb929b5b644e79e2e4f2cea81525081608001516009815181106110f7577f4e487b7100000000000000000000000000000000000000000000000000000000600052603260045260246000fd5b602002602001018190525060405180604001604052807f1dfc2ab1b4265b21f6224581b8ba7ecc7c3f066dc989f504e044f9eb2588ad6381526020017f0ed8a8d4426b737d0260c0c8aea00f11342dd6fa8c97cf537847263c8a95f1998152508160800151600a81518110611195577f4e487b7100000000000000000000000000000000000000000000000000000000600052603260045260246000fd5b602002602001018190525060405180604001604052807f2e94249dd9c121b2cb15eb0b38c4f0a4b219666b918d29286d6ee85e76d4f54681526020017f1a99f59dce564fafb37e6ae58c0c31b8ac1acc9dfdf04022777e4d3e3d4c94948152508160800151600b81518110611233577f4e487b7100000000000000000000000000000000000000000000000000000000600052603260045260246000fd5b602002602001018190525060405180604001604052807f01505446ef000d1366fb562453c31d2d7ac084c2f3425e74f51025e76173153e81526020017f1e3de5c952756d90d0af5584e645aeb9251774ab7a960e5922081a4015a9c7458152508160800151600c815181106112d1577f4e487b7100000000000000000000000000000000000000000000000000000000600052603260045260246000fd5b602002602001018190525060405180604001604052807f0ff6ad2f171f82352f3d6a4de5cb7ec9419504113aaa1245dd41b0fbea67cab981526020017f27adfc2ed724052ecd41053a443784157f0f4165c685ad5f3624c1707a153fbd8152508160800151600d8151811061136f577f4e487b7100000000000000000000000000000000000000000000000000000000600052603260045260246000fd5b602002602001018190525090565b611385612142565b61138d61215c565b8360000151816000600381106113cc577f4e487b7100000000000000000000000000000000000000000000000000000000600052603260045260246000fd5b602002018181525050836020015181600160038110611414577f4e487b7100000000000000000000000000000000000000000000000000000000600052603260045260246000fd5b6020020181815250508281600260038110611458577f4e487b7100000000000000000000000000000000000000000000000000000000600052603260045260246000fd5b602002018181525050600060608360808460076107d05a03fa9050806000811461148157611483565bfe5b50806114c4576040517f08c379a00000000000000000000000000000000000000000000000000000000081526004016114bb9061253e565b60405180910390fd5b505092915050565b6114d4612142565b6114dc61217e565b83600001518160006004811061151b577f4e487b7100000000000000000000000000000000000000000000000000000000600052603260045260246000fd5b602002018181525050836020015181600160048110611563577f4e487b7100000000000000000000000000000000000000000000000000000000600052603260045260246000fd5b6020020181815250508260000151816002600481106115ab577f4e487b7100000000000000000000000000000000000000000000000000000000600052603260045260246000fd5b6020020181815250508260200151816003600481106115f3577f4e487b7100000000000000000000000000000000000000000000000000000000600052603260045260246000fd5b602002018181525050600060608360c08460066107d05a03fa9050806000811461161c5761161e565bfe5b508061165f576040517f08c379a00000000000000000000000000000000000000000000000000000000081526004016116569061259e565b60405180910390fd5b505092915050565b61166f612142565b60007f30644e72e131a029b85045b68181585d97816a916871ca8d3c208c16d87cfd479050600083600001511480156116ac575060008360200151145b156116d0576040518060400160405280600081526020016000815250915050611707565b6040518060400160405280846000015181526020018285602001516116f591906127fa565b836117009190612736565b8152509150505b919050565b600080600467ffffffffffffffff811115611750577f4e487b7100000000000000000000000000000000000000000000000000000000600052604160045260246000fd5b60405190808252806020026020018201604052801561178957816020015b611776612142565b81526020019060019003908161176e5790505b5090506000600467ffffffffffffffff8111156117cf577f4e487b7100000000000000000000000000000000000000000000000000000000600052604160045260246000fd5b60405190808252806020026020018201604052801561180857816020015b6117f56121a0565b8152602001906001900390816117ed5790505b5090508a82600081518110611846577f4e487b7100000000000000000000000000000000000000000000000000000000600052603260045260246000fd5b6020026020010181905250888260018151811061188c577f4e487b7100000000000000000000000000000000000000000000000000000000600052603260045260246000fd5b602002602001018190525086826002815181106118d2577f4e487b7100000000000000000000000000000000000000000000000000000000600052603260045260246000fd5b60200260200101819052508482600381518110611918577f4e487b7100000000000000000000000000000000000000000000000000000000600052603260045260246000fd5b6020026020010181905250898160008151811061195e577f4e487b7100000000000000000000000000000000000000000000000000000000600052603260045260246000fd5b602002602001018190525087816001815181106119a4577f4e487b7100000000000000000000000000000000000000000000000000000000600052603260045260246000fd5b602002602001018190525085816002815181106119ea577f4e487b7100000000000000000000000000000000000000000000000000000000600052603260045260246000fd5b60200260200101819052508381600381518110611a30577f4e487b7100000000000000000000000000000000000000000000000000000000600052603260045260246000fd5b6020026020010181905250611a458282611a55565b9250505098975050505050505050565b60008151835114611a9b576040517f08c379a0000000000000000000000000000000000000000000000000000000008152600401611a929061257e565b60405180910390fd5b6000835190506000600682611ab091906126dc565b905060008167ffffffffffffffff811115611af4577f4e487b7100000000000000000000000000000000000000000000000000000000600052604160045260246000fd5b604051908082528060200260200182016040528015611b225781602001602082028036833780820191505090505b50905060005b8381101561200757868181518110611b69577f4e487b7100000000000000000000000000000000000000000000000000000000600052603260045260246000fd5b602002602001015160000151826000600684611b8591906126dc565b611b8f9190612686565b81518110611bc6577f4e487b7100000000000000000000000000000000000000000000000000000000600052603260045260246000fd5b602002602001018181525050868181518110611c0b577f4e487b7100000000000000000000000000000000000000000000000000000000600052603260045260246000fd5b602002602001015160200151826001600684611c2791906126dc565b611c319190612686565b81518110611c68577f4e487b7100000000000000000000000000000000000000000000000000000000600052603260045260246000fd5b602002602001018181525050858181518110611cad577f4e487b7100000000000000000000000000000000000000000000000000000000600052603260045260246000fd5b602002602001015160000151600060028110611cf2577f4e487b7100000000000000000000000000000000000000000000000000000000600052603260045260246000fd5b6020020151826002600684611d0791906126dc565b611d119190612686565b81518110611d48577f4e487b7100000000000000000000000000000000000000000000000000000000600052603260045260246000fd5b602002602001018181525050858181518110611d8d577f4e487b7100000000000000000000000000000000000000000000000000000000600052603260045260246000fd5b602002602001015160000151600160028110611dd2577f4e487b7100000000000000000000000000000000000000000000000000000000600052603260045260246000fd5b6020020151826003600684611de791906126dc565b611df19190612686565b81518110611e28577f4e487b7100000000000000000000000000000000000000000000000000000000600052603260045260246000fd5b602002602001018181525050858181518110611e6d577f4e487b7100000000000000000000000000000000000000000000000000000000600052603260045260246000fd5b602002602001015160200151600060028110611eb2577f4e487b7100000000000000000000000000000000000000000000000000000000600052603260045260246000fd5b6020020151826004600684611ec791906126dc565b611ed19190612686565b81518110611f08577f4e487b7100000000000000000000000000000000000000000000000000000000600052603260045260246000fd5b602002602001018181525050858181518110611f4d577f4e487b7100000000000000000000000000000000000000000000000000000000600052603260045260246000fd5b602002602001015160200151600160028110611f92577f4e487b7100000000000000000000000000000000000000000000000000000000600052603260045260246000fd5b6020020151826005600684611fa791906126dc565b611fb19190612686565b81518110611fe8577f4e487b7100000000000000000000000000000000000000000000000000000000600052603260045260246000fd5b6020026020010181815250508080611fff906127b1565b915050611b28565b506120106121c6565b6000602082602086026020860160086107d05a03fa9050806000811461203557612037565bfe5b5080612078576040517f08c379a000000000000000000000000000000000000000000000000000000000815260040161206f906125be565b60405180910390fd5b6000826000600181106120b4577f4e487b7100000000000000000000000000000000000000000000000000000000600052603260045260246000fd5b602002015114159550505050505092915050565b60405180606001604052806120db612142565b81526020016120e86121a0565b81526020016120f5612142565b81525090565b6040518060a0016040528061210e612142565b815260200161211b6121a0565b81526020016121286121a0565b81526020016121356121a0565b8152602001606081525090565b604051806040016040528060008152602001600081525090565b6040518060600160405280600390602082028036833780820191505090505090565b6040518060800160405280600490602082028036833780820191505090505090565b60405180604001604052806121b36121e8565b81526020016121c06121e8565b81525090565b6040518060200160405280600190602082028036833780820191505090505090565b6040518060400160405280600290602082028036833780820191505090505090565b600061221d61221884612603565b6125de565b9050808285604086028201111561223357600080fd5b60005b8581101561226357816122498882612381565b845260208401935060408301925050600181019050612236565b5050509392505050565b600061228061227b84612629565b6125de565b9050808285602086028201111561229657600080fd5b60005b858110156122c657816122ac88826123a8565b845260208401935060208301925050600181019050612299565b5050509392505050565b60006122e36122de8461264f565b6125de565b905080828560208602820111156122f957600080fd5b60005b85811015612329578161230f88826123a8565b8452602084019350602083019250506001810190506122fc565b5050509392505050565b600082601f83011261234457600080fd5b600261235184828561220a565b91505092915050565b600082601f83011261236b57600080fd5b600d61237884828561226d565b91505092915050565b600082601f83011261239257600080fd5b600261239f8482856122d0565b91505092915050565b6000813590506123b7816129bf565b92915050565b6000806000806102a085870312156123d457600080fd5b60006123e287828801612381565b94505060406123f387828801612333565b93505060c061240487828801612381565b9250506101006124168782880161235a565b91505092959194509250565b61242b8161276a565b82525050565b600061243e601283612675565b9150612449826128c9565b602082019050919050565b6000612461601283612675565b915061246c826128f2565b602082019050919050565b6000612484601f83612675565b915061248f8261291b565b602082019050919050565b60006124a7601683612675565b91506124b282612944565b602082019050919050565b60006124ca601283612675565b91506124d58261296d565b602082019050919050565b60006124ed601583612675565b91506124f882612996565b602082019050919050565b60006020820190506125186000830184612422565b92915050565b6000602082019050818103600083015261253781612431565b9050919050565b6000602082019050818103600083015261255781612454565b9050919050565b6000602082019050818103600083015261257781612477565b9050919050565b600060208201905081810360008301526125978161249a565b9050919050565b600060208201905081810360008301526125b7816124bd565b9050919050565b600060208201905081810360008301526125d7816124e0565b9050919050565b60006125e86125f9565b90506125f48282612780565b919050565b6000604051905090565b600067ffffffffffffffff82111561261e5761261d612889565b5b602082029050919050565b600067ffffffffffffffff82111561264457612643612889565b5b602082029050919050565b600067ffffffffffffffff82111561266a57612669612889565b5b602082029050919050565b600082825260208201905092915050565b600061269182612776565b915061269c83612776565b9250827fffffffffffffffffffffffffffffffffffffffffffffffffffffffffffffffff038211156126d1576126d061282b565b5b828201905092915050565b60006126e782612776565b91506126f283612776565b9250817fffffffffffffffffffffffffffffffffffffffffffffffffffffffffffffffff048311821515161561272b5761272a61282b565b5b828202905092915050565b600061274182612776565b915061274c83612776565b92508282101561275f5761275e61282b565b5b828203905092915050565b60008115159050919050565b6000819050919050565b612789826128b8565b810181811067ffffffffffffffff821117156127a8576127a7612889565b5b80604052505050565b60006127bc82612776565b91507fffffffffffffffffffffffffffffffffffffffffffffffffffffffffffffffff8214156127ef576127ee61282b565b5b600182019050919050565b600061280582612776565b915061281083612776565b9250826128205761281f61285a565b5b828206905092915050565b7f4e487b7100000000000000000000000000000000000000000000000000000000600052601160045260246000fd5b7f4e487b7100000000000000000000000000000000000000000000000000000000600052601260045260246000fd5b7f4e487b7100000000000000000000000000000000000000000000000000000000600052604160045260246000fd5b6000601f19601f8301169050919050565b7f76657269666965722d6261642d696e7075740000000000000000000000000000600082015250565b7f70616972696e672d6d756c2d6661696c65640000000000000000000000000000600082015250565b7f76657269666965722d6774652d736e61726b2d7363616c61722d6669656c6400600082015250565b7f70616972696e672d6c656e677468732d6661696c656400000000000000000000600082015250565b7f70616972696e672d6164642d6661696c65640000000000000000000000000000600082015250565b7f70616972696e672d6f70636f64652d6661696c65640000000000000000000000600082015250565b6129c881612776565b81146129d357600080fd5b5056fea2646970667358221220cdc69703245bca402197e1b703376e7c86eacd417bdb15acf4995b78d6f7c67764736f6c63430008040033",
          "opcodes": "PUSH1 0x80 PUSH1 0x40 MSTORE CALLVALUE DUP1 ISZERO PUSH2 0x10 JUMPI PUSH1 0x0 DUP1 REVERT JUMPDEST POP PUSH2 0x2A0C DUP1 PUSH2 0x20 PUSH1 0x0 CODECOPY PUSH1 0x0 RETURN INVALID PUSH1 0x80 PUSH1 0x40 MSTORE CALLVALUE DUP1 ISZERO PUSH2 0x10 JUMPI PUSH1 0x0 DUP1 REVERT JUMPDEST POP PUSH1 0x4 CALLDATASIZE LT PUSH2 0x2B JUMPI PUSH1 0x0 CALLDATALOAD PUSH1 0xE0 SHR DUP1 PUSH4 0xF143A75E EQ PUSH2 0x30 JUMPI JUMPDEST PUSH1 0x0 DUP1 REVERT JUMPDEST PUSH2 0x4A PUSH1 0x4 DUP1 CALLDATASIZE SUB DUP2 ADD SWAP1 PUSH2 0x45 SWAP2 SWAP1 PUSH2 0x23BD JUMP JUMPDEST PUSH2 0x60 JUMP JUMPDEST PUSH1 0x40 MLOAD PUSH2 0x57 SWAP2 SWAP1 PUSH2 0x2503 JUMP JUMPDEST PUSH1 0x40 MLOAD DUP1 SWAP2 SUB SWAP1 RETURN JUMPDEST PUSH1 0x0 PUSH2 0x6A PUSH2 0x20C8 JUMP JUMPDEST PUSH1 0x40 MLOAD DUP1 PUSH1 0x40 ADD PUSH1 0x40 MSTORE DUP1 DUP8 PUSH1 0x0 PUSH1 0x2 DUP2 LT PUSH2 0xAF JUMPI PUSH32 0x4E487B7100000000000000000000000000000000000000000000000000000000 PUSH1 0x0 MSTORE PUSH1 0x32 PUSH1 0x4 MSTORE PUSH1 0x24 PUSH1 0x0 REVERT JUMPDEST PUSH1 0x20 MUL ADD MLOAD DUP2 MSTORE PUSH1 0x20 ADD DUP8 PUSH1 0x1 PUSH1 0x2 DUP2 LT PUSH2 0xF3 JUMPI PUSH32 0x4E487B7100000000000000000000000000000000000000000000000000000000 PUSH1 0x0 MSTORE PUSH1 0x32 PUSH1 0x4 MSTORE PUSH1 0x24 PUSH1 0x0 REVERT JUMPDEST PUSH1 0x20 MUL ADD MLOAD DUP2 MSTORE POP DUP2 PUSH1 0x0 ADD DUP2 SWAP1 MSTORE POP PUSH1 0x40 MLOAD DUP1 PUSH1 0x40 ADD PUSH1 0x40 MSTORE DUP1 PUSH1 0x40 MLOAD DUP1 PUSH1 0x40 ADD PUSH1 0x40 MSTORE DUP1 DUP9 PUSH1 0x0 PUSH1 0x2 DUP2 LT PUSH2 0x153 JUMPI PUSH32 0x4E487B7100000000000000000000000000000000000000000000000000000000 PUSH1 0x0 MSTORE PUSH1 0x32 PUSH1 0x4 MSTORE PUSH1 0x24 PUSH1 0x0 REVERT JUMPDEST PUSH1 0x20 MUL ADD MLOAD PUSH1 0x0 PUSH1 0x2 DUP2 LT PUSH2 0x191 JUMPI PUSH32 0x4E487B7100000000000000000000000000000000000000000000000000000000 PUSH1 0x0 MSTORE PUSH1 0x32 PUSH1 0x4 MSTORE PUSH1 0x24 PUSH1 0x0 REVERT JUMPDEST PUSH1 0x20 MUL ADD MLOAD DUP2 MSTORE PUSH1 0x20 ADD DUP9 PUSH1 0x0 PUSH1 0x2 DUP2 LT PUSH2 0x1D5 JUMPI PUSH32 0x4E487B7100000000000000000000000000000000000000000000000000000000 PUSH1 0x0 MSTORE PUSH1 0x32 PUSH1 0x4 MSTORE PUSH1 0x24 PUSH1 0x0 REVERT JUMPDEST PUSH1 0x20 MUL ADD MLOAD PUSH1 0x1 PUSH1 0x2 DUP2 LT PUSH2 0x213 JUMPI PUSH32 0x4E487B7100000000000000000000000000000000000000000000000000000000 PUSH1 0x0 MSTORE PUSH1 0x32 PUSH1 0x4 MSTORE PUSH1 0x24 PUSH1 0x0 REVERT JUMPDEST PUSH1 0x20 MUL ADD MLOAD DUP2 MSTORE POP DUP2 MSTORE PUSH1 0x20 ADD PUSH1 0x40 MLOAD DUP1 PUSH1 0x40 ADD PUSH1 0x40 MSTORE DUP1 DUP9 PUSH1 0x1 PUSH1 0x2 DUP2 LT PUSH2 0x265 JUMPI PUSH32 0x4E487B7100000000000000000000000000000000000000000000000000000000 PUSH1 0x0 MSTORE PUSH1 0x32 PUSH1 0x4 MSTORE PUSH1 0x24 PUSH1 0x0 REVERT JUMPDEST PUSH1 0x20 MUL ADD MLOAD PUSH1 0x0 PUSH1 0x2 DUP2 LT PUSH2 0x2A3 JUMPI PUSH32 0x4E487B7100000000000000000000000000000000000000000000000000000000 PUSH1 0x0 MSTORE PUSH1 0x32 PUSH1 0x4 MSTORE PUSH1 0x24 PUSH1 0x0 REVERT JUMPDEST PUSH1 0x20 MUL ADD MLOAD DUP2 MSTORE PUSH1 0x20 ADD DUP9 PUSH1 0x1 PUSH1 0x2 DUP2 LT PUSH2 0x2E7 JUMPI PUSH32 0x4E487B7100000000000000000000000000000000000000000000000000000000 PUSH1 0x0 MSTORE PUSH1 0x32 PUSH1 0x4 MSTORE PUSH1 0x24 PUSH1 0x0 REVERT JUMPDEST PUSH1 0x20 MUL ADD MLOAD PUSH1 0x1 PUSH1 0x2 DUP2 LT PUSH2 0x325 JUMPI PUSH32 0x4E487B7100000000000000000000000000000000000000000000000000000000 PUSH1 0x0 MSTORE PUSH1 0x32 PUSH1 0x4 MSTORE PUSH1 0x24 PUSH1 0x0 REVERT JUMPDEST PUSH1 0x20 MUL ADD MLOAD DUP2 MSTORE POP DUP2 MSTORE POP DUP2 PUSH1 0x20 ADD DUP2 SWAP1 MSTORE POP PUSH1 0x40 MLOAD DUP1 PUSH1 0x40 ADD PUSH1 0x40 MSTORE DUP1 DUP6 PUSH1 0x0 PUSH1 0x2 DUP2 LT PUSH2 0x37D JUMPI PUSH32 0x4E487B7100000000000000000000000000000000000000000000000000000000 PUSH1 0x0 MSTORE PUSH1 0x32 PUSH1 0x4 MSTORE PUSH1 0x24 PUSH1 0x0 REVERT JUMPDEST PUSH1 0x20 MUL ADD MLOAD DUP2 MSTORE PUSH1 0x20 ADD DUP6 PUSH1 0x1 PUSH1 0x2 DUP2 LT PUSH2 0x3C1 JUMPI PUSH32 0x4E487B7100000000000000000000000000000000000000000000000000000000 PUSH1 0x0 MSTORE PUSH1 0x32 PUSH1 0x4 MSTORE PUSH1 0x24 PUSH1 0x0 REVERT JUMPDEST PUSH1 0x20 MUL ADD MLOAD DUP2 MSTORE POP DUP2 PUSH1 0x40 ADD DUP2 SWAP1 MSTORE POP PUSH1 0x0 PUSH1 0xD PUSH8 0xFFFFFFFFFFFFFFFF DUP2 GT ISZERO PUSH2 0x414 JUMPI PUSH32 0x4E487B7100000000000000000000000000000000000000000000000000000000 PUSH1 0x0 MSTORE PUSH1 0x41 PUSH1 0x4 MSTORE PUSH1 0x24 PUSH1 0x0 REVERT JUMPDEST PUSH1 0x40 MLOAD SWAP1 DUP1 DUP3 MSTORE DUP1 PUSH1 0x20 MUL PUSH1 0x20 ADD DUP3 ADD PUSH1 0x40 MSTORE DUP1 ISZERO PUSH2 0x442 JUMPI DUP2 PUSH1 0x20 ADD PUSH1 0x20 DUP3 MUL DUP1 CALLDATASIZE DUP4 CALLDATACOPY DUP1 DUP3 ADD SWAP2 POP POP SWAP1 POP JUMPDEST POP SWAP1 POP PUSH1 0x0 JUMPDEST PUSH1 0xD DUP2 LT ISZERO PUSH2 0x4E7 JUMPI DUP5 DUP2 PUSH1 0xD DUP2 LT PUSH2 0x48A JUMPI PUSH32 0x4E487B7100000000000000000000000000000000000000000000000000000000 PUSH1 0x0 MSTORE PUSH1 0x32 PUSH1 0x4 MSTORE PUSH1 0x24 PUSH1 0x0 REVERT JUMPDEST PUSH1 0x20 MUL ADD MLOAD DUP3 DUP3 DUP2 MLOAD DUP2 LT PUSH2 0x4C8 JUMPI PUSH32 0x4E487B7100000000000000000000000000000000000000000000000000000000 PUSH1 0x0 MSTORE PUSH1 0x32 PUSH1 0x4 MSTORE PUSH1 0x24 PUSH1 0x0 REVERT JUMPDEST PUSH1 0x20 MUL PUSH1 0x20 ADD ADD DUP2 DUP2 MSTORE POP POP DUP1 DUP1 PUSH2 0x4DF SWAP1 PUSH2 0x27B1 JUMP JUMPDEST SWAP2 POP POP PUSH2 0x448 JUMP JUMPDEST POP PUSH1 0x0 PUSH2 0x4F4 DUP3 DUP5 PUSH2 0x514 JUMP JUMPDEST EQ ISZERO PUSH2 0x505 JUMPI PUSH1 0x1 SWAP3 POP POP POP PUSH2 0x50C JUMP JUMPDEST PUSH1 0x0 SWAP3 POP POP POP JUMPDEST SWAP5 SWAP4 POP POP POP POP JUMP JUMPDEST PUSH1 0x0 DUP1 PUSH32 0x30644E72E131A029B85045B68181585D2833E84879B9709143E1F593F0000001 SWAP1 POP PUSH1 0x0 PUSH2 0x544 PUSH2 0x79F JUMP JUMPDEST SWAP1 POP DUP1 PUSH1 0x80 ADD MLOAD MLOAD PUSH1 0x1 DUP7 MLOAD PUSH2 0x55A SWAP2 SWAP1 PUSH2 0x2686 JUMP JUMPDEST EQ PUSH2 0x59A JUMPI PUSH1 0x40 MLOAD PUSH32 0x8C379A000000000000000000000000000000000000000000000000000000000 DUP2 MSTORE PUSH1 0x4 ADD PUSH2 0x591 SWAP1 PUSH2 0x251E JUMP JUMPDEST PUSH1 0x40 MLOAD DUP1 SWAP2 SUB SWAP1 REVERT JUMPDEST PUSH1 0x0 PUSH1 0x40 MLOAD DUP1 PUSH1 0x40 ADD PUSH1 0x40 MSTORE DUP1 PUSH1 0x0 DUP2 MSTORE PUSH1 0x20 ADD PUSH1 0x0 DUP2 MSTORE POP SWAP1 POP PUSH1 0x0 JUMPDEST DUP7 MLOAD DUP2 LT ISZERO PUSH2 0x6FB JUMPI DUP4 DUP8 DUP3 DUP2 MLOAD DUP2 LT PUSH2 0x5FB JUMPI PUSH32 0x4E487B7100000000000000000000000000000000000000000000000000000000 PUSH1 0x0 MSTORE PUSH1 0x32 PUSH1 0x4 MSTORE PUSH1 0x24 PUSH1 0x0 REVERT JUMPDEST PUSH1 0x20 MUL PUSH1 0x20 ADD ADD MLOAD LT PUSH2 0x643 JUMPI PUSH1 0x40 MLOAD PUSH32 0x8C379A000000000000000000000000000000000000000000000000000000000 DUP2 MSTORE PUSH1 0x4 ADD PUSH2 0x63A SWAP1 PUSH2 0x255E JUMP JUMPDEST PUSH1 0x40 MLOAD DUP1 SWAP2 SUB SWAP1 REVERT JUMPDEST PUSH2 0x6E6 DUP3 PUSH2 0x6E1 DUP6 PUSH1 0x80 ADD MLOAD PUSH1 0x1 DUP6 PUSH2 0x65C SWAP2 SWAP1 PUSH2 0x2686 JUMP JUMPDEST DUP2 MLOAD DUP2 LT PUSH2 0x693 JUMPI PUSH32 0x4E487B7100000000000000000000000000000000000000000000000000000000 PUSH1 0x0 MSTORE PUSH1 0x32 PUSH1 0x4 MSTORE PUSH1 0x24 PUSH1 0x0 REVERT JUMPDEST PUSH1 0x20 MUL PUSH1 0x20 ADD ADD MLOAD DUP11 DUP6 DUP2 MLOAD DUP2 LT PUSH2 0x6D4 JUMPI PUSH32 0x4E487B7100000000000000000000000000000000000000000000000000000000 PUSH1 0x0 MSTORE PUSH1 0x32 PUSH1 0x4 MSTORE PUSH1 0x24 PUSH1 0x0 REVERT JUMPDEST PUSH1 0x20 MUL PUSH1 0x20 ADD ADD MLOAD PUSH2 0x137D JUMP JUMPDEST PUSH2 0x14CC JUMP JUMPDEST SWAP2 POP DUP1 DUP1 PUSH2 0x6F3 SWAP1 PUSH2 0x27B1 JUMP JUMPDEST SWAP2 POP POP PUSH2 0x5B8 JUMP JUMPDEST POP PUSH2 0x74B DUP2 DUP4 PUSH1 0x80 ADD MLOAD PUSH1 0x0 DUP2 MLOAD DUP2 LT PUSH2 0x73E JUMPI PUSH32 0x4E487B7100000000000000000000000000000000000000000000000000000000 PUSH1 0x0 MSTORE PUSH1 0x32 PUSH1 0x4 MSTORE PUSH1 0x24 PUSH1 0x0 REVERT JUMPDEST PUSH1 0x20 MUL PUSH1 0x20 ADD ADD MLOAD PUSH2 0x14CC JUMP JUMPDEST SWAP1 POP PUSH2 0x781 PUSH2 0x75D DUP7 PUSH1 0x0 ADD MLOAD PUSH2 0x1667 JUMP JUMPDEST DUP7 PUSH1 0x20 ADD MLOAD DUP5 PUSH1 0x0 ADD MLOAD DUP6 PUSH1 0x20 ADD MLOAD DUP6 DUP8 PUSH1 0x40 ADD MLOAD DUP12 PUSH1 0x40 ADD MLOAD DUP10 PUSH1 0x60 ADD MLOAD PUSH2 0x170C JUMP JUMPDEST PUSH2 0x791 JUMPI PUSH1 0x1 SWAP4 POP POP POP POP PUSH2 0x799 JUMP JUMPDEST PUSH1 0x0 SWAP4 POP POP POP POP JUMPDEST SWAP3 SWAP2 POP POP JUMP JUMPDEST PUSH2 0x7A7 PUSH2 0x20FB JUMP JUMPDEST PUSH1 0x40 MLOAD DUP1 PUSH1 0x40 ADD PUSH1 0x40 MSTORE DUP1 PUSH32 0x2D4D9AA7E302D9DF41749D5507949D05DBEA33FBB16C643B22F599A2BE6DF2E2 DUP2 MSTORE PUSH1 0x20 ADD PUSH32 0x14BEDD503C37CEB061D8EC60209FE345CE89830A19230301F076CAFF004D1926 DUP2 MSTORE POP DUP2 PUSH1 0x0 ADD DUP2 SWAP1 MSTORE POP PUSH1 0x40 MLOAD DUP1 PUSH1 0x40 ADD PUSH1 0x40 MSTORE DUP1 PUSH1 0x40 MLOAD DUP1 PUSH1 0x40 ADD PUSH1 0x40 MSTORE DUP1 PUSH32 0x967032FCBF776D1AFC985F88877F182D38480A653F2DECAA9794CBC3BF3060C DUP2 MSTORE PUSH1 0x20 ADD PUSH32 0xE187847AD4C798374D0D6732BF501847DD68BC0E071241E0213BC7FC13DB7AB DUP2 MSTORE POP DUP2 MSTORE PUSH1 0x20 ADD PUSH1 0x40 MLOAD DUP1 PUSH1 0x40 ADD PUSH1 0x40 MSTORE DUP1 PUSH32 0x304CFBD1E08A704A99F5E847D93F8C3CAAFDDEC46B7A0D379DA69A4D112346A7 DUP2 MSTORE PUSH1 0x20 ADD PUSH32 0x1739C1B1A457A8C7313123D24D2F9192F896B7C63EEA05A9D57F06547AD0CEC8 DUP2 MSTORE POP DUP2 MSTORE POP DUP2 PUSH1 0x20 ADD DUP2 SWAP1 MSTORE POP PUSH1 0x40 MLOAD DUP1 PUSH1 0x40 ADD PUSH1 0x40 MSTORE DUP1 PUSH1 0x40 MLOAD DUP1 PUSH1 0x40 ADD PUSH1 0x40 MSTORE DUP1 PUSH32 0x198E9393920D483A7260BFB731FB5D25F1AA493335A9E71297E485B7AEF312C2 DUP2 MSTORE PUSH1 0x20 ADD PUSH32 0x1800DEEF121F1E76426A00665E5C4479674322D4F75EDADD46DEBD5CD992F6ED DUP2 MSTORE POP DUP2 MSTORE PUSH1 0x20 ADD PUSH1 0x40 MLOAD DUP1 PUSH1 0x40 ADD PUSH1 0x40 MSTORE DUP1 PUSH32 0x90689D0585FF075EC9E99AD690C3395BC4B313370B38EF355ACDADCD122975B DUP2 MSTORE PUSH1 0x20 ADD PUSH32 0x12C85EA5DB8C6DEB4AAB71808DCB408FE3D1E7690C43D37B4CE6CC0166FA7DAA DUP2 MSTORE POP DUP2 MSTORE POP DUP2 PUSH1 0x40 ADD DUP2 SWAP1 MSTORE POP PUSH1 0x40 MLOAD DUP1 PUSH1 0x40 ADD PUSH1 0x40 MSTORE DUP1 PUSH1 0x40 MLOAD DUP1 PUSH1 0x40 ADD PUSH1 0x40 MSTORE DUP1 PUSH32 0x3015CE2F43AA475D29C622278A41CF7AB67225235925EECAECC4162760792D10 DUP2 MSTORE PUSH1 0x20 ADD PUSH32 0x2FADDE6C1429103731205405F1A9813531682BA5CFD55D4751BB2A82D54CCE1F DUP2 MSTORE POP DUP2 MSTORE PUSH1 0x20 ADD PUSH1 0x40 MLOAD DUP1 PUSH1 0x40 ADD PUSH1 0x40 MSTORE DUP1 PUSH32 0xF92E4E7E7C762035DECEFF86A3AB26B6C4F90D3FF7EEB134678839EBEB0FCAD DUP2 MSTORE PUSH1 0x20 ADD PUSH32 0x9FEC2E26D79E5A41093CD1B4791690FEF63C836A8641F06D2E4F3582CD71321 DUP2 MSTORE POP DUP2 MSTORE POP DUP2 PUSH1 0x60 ADD DUP2 SWAP1 MSTORE POP PUSH1 0xE PUSH8 0xFFFFFFFFFFFFFFFF DUP2 GT ISZERO PUSH2 0xA94 JUMPI PUSH32 0x4E487B7100000000000000000000000000000000000000000000000000000000 PUSH1 0x0 MSTORE PUSH1 0x41 PUSH1 0x4 MSTORE PUSH1 0x24 PUSH1 0x0 REVERT JUMPDEST PUSH1 0x40 MLOAD SWAP1 DUP1 DUP3 MSTORE DUP1 PUSH1 0x20 MUL PUSH1 0x20 ADD DUP3 ADD PUSH1 0x40 MSTORE DUP1 ISZERO PUSH2 0xACD JUMPI DUP2 PUSH1 0x20 ADD JUMPDEST PUSH2 0xABA PUSH2 0x2142 JUMP JUMPDEST DUP2 MSTORE PUSH1 0x20 ADD SWAP1 PUSH1 0x1 SWAP1 SUB SWAP1 DUP2 PUSH2 0xAB2 JUMPI SWAP1 POP JUMPDEST POP DUP2 PUSH1 0x80 ADD DUP2 SWAP1 MSTORE POP PUSH1 0x40 MLOAD DUP1 PUSH1 0x40 ADD PUSH1 0x40 MSTORE DUP1 PUSH32 0x33E81C6F3D112BAAE6E30AFF0C84FABEAFFA207E9456DF3AF4B3B2231F2A459 DUP2 MSTORE PUSH1 0x20 ADD PUSH32 0x1AC763BDF8BA1B0B7447146D6D194B041D1A7791C9984B3BA0931C4D2D8E8035 DUP2 MSTORE POP DUP2 PUSH1 0x80 ADD MLOAD PUSH1 0x0 DUP2 MLOAD DUP2 LT PUSH2 0xB69 JUMPI PUSH32 0x4E487B7100000000000000000000000000000000000000000000000000000000 PUSH1 0x0 MSTORE PUSH1 0x32 PUSH1 0x4 MSTORE PUSH1 0x24 PUSH1 0x0 REVERT JUMPDEST PUSH1 0x20 MUL PUSH1 0x20 ADD ADD DUP2 SWAP1 MSTORE POP PUSH1 0x40 MLOAD DUP1 PUSH1 0x40 ADD PUSH1 0x40 MSTORE DUP1 PUSH32 0x21000DF59B97D34AA6E27FC60537457CD3CCAE91DB9588CFEC9FED6D52887111 DUP2 MSTORE PUSH1 0x20 ADD PUSH32 0x97EF0A299421E4F95B114C0F531F59FB198F16FD200431287918B6ECDA79751 DUP2 MSTORE POP DUP2 PUSH1 0x80 ADD MLOAD PUSH1 0x1 DUP2 MLOAD DUP2 LT PUSH2 0xC07 JUMPI PUSH32 0x4E487B7100000000000000000000000000000000000000000000000000000000 PUSH1 0x0 MSTORE PUSH1 0x32 PUSH1 0x4 MSTORE PUSH1 0x24 PUSH1 0x0 REVERT JUMPDEST PUSH1 0x20 MUL PUSH1 0x20 ADD ADD DUP2 SWAP1 MSTORE POP PUSH1 0x40 MLOAD DUP1 PUSH1 0x40 ADD PUSH1 0x40 MSTORE DUP1 PUSH32 0x21C3C2B47B247E292D786924420B67F8934A264F578BA2637C5A4A8DC27FF4BC DUP2 MSTORE PUSH1 0x20 ADD PUSH32 0x6C6C1FEC10E41381BE0870952FD7369A82BD32F75E500EC1B938B3847355F1D DUP2 MSTORE POP DUP2 PUSH1 0x80 ADD MLOAD PUSH1 0x2 DUP2 MLOAD DUP2 LT PUSH2 0xCA5 JUMPI PUSH32 0x4E487B7100000000000000000000000000000000000000000000000000000000 PUSH1 0x0 MSTORE PUSH1 0x32 PUSH1 0x4 MSTORE PUSH1 0x24 PUSH1 0x0 REVERT JUMPDEST PUSH1 0x20 MUL PUSH1 0x20 ADD ADD DUP2 SWAP1 MSTORE POP PUSH1 0x40 MLOAD DUP1 PUSH1 0x40 ADD PUSH1 0x40 MSTORE DUP1 PUSH32 0x283D982BCD9614F66186D7EED219F0A0A05A21FB5E0143F1DA05369704EFFDAF DUP2 MSTORE PUSH1 0x20 ADD PUSH32 0x716A9C7DF0EDEAB91FE56C2E9AE19701AD873C0EE6448FFB5380C7F1F5B94CB DUP2 MSTORE POP DUP2 PUSH1 0x80 ADD MLOAD PUSH1 0x3 DUP2 MLOAD DUP2 LT PUSH2 0xD43 JUMPI PUSH32 0x4E487B7100000000000000000000000000000000000000000000000000000000 PUSH1 0x0 MSTORE PUSH1 0x32 PUSH1 0x4 MSTORE PUSH1 0x24 PUSH1 0x0 REVERT JUMPDEST PUSH1 0x20 MUL PUSH1 0x20 ADD ADD DUP2 SWAP1 MSTORE POP PUSH1 0x40 MLOAD DUP1 PUSH1 0x40 ADD PUSH1 0x40 MSTORE DUP1 PUSH32 0x1CEAEDEF694DAEE0247F8F26F889E00B3AC819489FC1D871AEB3D9F33C9C3832 DUP2 MSTORE PUSH1 0x20 ADD PUSH32 0x10F7B22A2C88E4DF6C3B17043A99782C448F91291C1445BCA350D531E911C3EF DUP2 MSTORE POP DUP2 PUSH1 0x80 ADD MLOAD PUSH1 0x4 DUP2 MLOAD DUP2 LT PUSH2 0xDE1 JUMPI PUSH32 0x4E487B7100000000000000000000000000000000000000000000000000000000 PUSH1 0x0 MSTORE PUSH1 0x32 PUSH1 0x4 MSTORE PUSH1 0x24 PUSH1 0x0 REVERT JUMPDEST PUSH1 0x20 MUL PUSH1 0x20 ADD ADD DUP2 SWAP1 MSTORE POP PUSH1 0x40 MLOAD DUP1 PUSH1 0x40 ADD PUSH1 0x40 MSTORE DUP1 PUSH32 0x23CE3A2AD0575B04A820070FCF3C8009FBB2F13055E37D3BBD378AE0ECC99AFD DUP2 MSTORE PUSH1 0x20 ADD PUSH32 0x13E2BC32B1E50DF4449CC523CFA98CA6BD2E9AB2F5441B80C22D4289AF56CE72 DUP2 MSTORE POP DUP2 PUSH1 0x80 ADD MLOAD PUSH1 0x5 DUP2 MLOAD DUP2 LT PUSH2 0xE7F JUMPI PUSH32 0x4E487B7100000000000000000000000000000000000000000000000000000000 PUSH1 0x0 MSTORE PUSH1 0x32 PUSH1 0x4 MSTORE PUSH1 0x24 PUSH1 0x0 REVERT JUMPDEST PUSH1 0x20 MUL PUSH1 0x20 ADD ADD DUP2 SWAP1 MSTORE POP PUSH1 0x40 MLOAD DUP1 PUSH1 0x40 ADD PUSH1 0x40 MSTORE DUP1 PUSH32 0x1AE18D022044019545507172CC156DF0E684FC2C12C50CF47FA9302293A9F65 DUP2 MSTORE PUSH1 0x20 ADD PUSH32 0x7CF04D11E961A3C9DC55E8624967D6689C7E47A08883573562DAFBBF22ABD08 DUP2 MSTORE POP DUP2 PUSH1 0x80 ADD MLOAD PUSH1 0x6 DUP2 MLOAD DUP2 LT PUSH2 0xF1D JUMPI PUSH32 0x4E487B7100000000000000000000000000000000000000000000000000000000 PUSH1 0x0 MSTORE PUSH1 0x32 PUSH1 0x4 MSTORE PUSH1 0x24 PUSH1 0x0 REVERT JUMPDEST PUSH1 0x20 MUL PUSH1 0x20 ADD ADD DUP2 SWAP1 MSTORE POP PUSH1 0x40 MLOAD DUP1 PUSH1 0x40 ADD PUSH1 0x40 MSTORE DUP1 PUSH32 0x290B5BC5CC7F24249C0E7E1A44E492CB8E7DD84A8FB6C6170EF94BE8EAF1A2A8 DUP2 MSTORE PUSH1 0x20 ADD PUSH32 0x1E9F30C8DC1AA9624883F5DF0006EBE6DE17BE3B328A1988616861571F57ED81 DUP2 MSTORE POP DUP2 PUSH1 0x80 ADD MLOAD PUSH1 0x7 DUP2 MLOAD DUP2 LT PUSH2 0xFBB JUMPI PUSH32 0x4E487B7100000000000000000000000000000000000000000000000000000000 PUSH1 0x0 MSTORE PUSH1 0x32 PUSH1 0x4 MSTORE PUSH1 0x24 PUSH1 0x0 REVERT JUMPDEST PUSH1 0x20 MUL PUSH1 0x20 ADD ADD DUP2 SWAP1 MSTORE POP PUSH1 0x40 MLOAD DUP1 PUSH1 0x40 ADD PUSH1 0x40 MSTORE DUP1 PUSH32 0xAD52C58DD8FCD8AC8D3F2F9004F8478E65B7A592F208AB90E211B69A6005DCD DUP2 MSTORE PUSH1 0x20 ADD PUSH32 0x25331FCE6035444D5EE18BE5C9FF328D84B7E4517FC444585D97BC6919B1A91C DUP2 MSTORE POP DUP2 PUSH1 0x80 ADD MLOAD PUSH1 0x8 DUP2 MLOAD DUP2 LT PUSH2 0x1059 JUMPI PUSH32 0x4E487B7100000000000000000000000000000000000000000000000000000000 PUSH1 0x0 MSTORE PUSH1 0x32 PUSH1 0x4 MSTORE PUSH1 0x24 PUSH1 0x0 REVERT JUMPDEST PUSH1 0x20 MUL PUSH1 0x20 ADD ADD DUP2 SWAP1 MSTORE POP PUSH1 0x40 MLOAD DUP1 PUSH1 0x40 ADD PUSH1 0x40 MSTORE DUP1 PUSH32 0x15D0ACB40D8E7D97A0798F21057DEA220804BE6B40D58CA06391FD630D332D3E DUP2 MSTORE PUSH1 0x20 ADD PUSH32 0x1194619EE943984E7F0FB6FA65A0DA1D62051D3E4FB929B5B644E79E2E4F2CEA DUP2 MSTORE POP DUP2 PUSH1 0x80 ADD MLOAD PUSH1 0x9 DUP2 MLOAD DUP2 LT PUSH2 0x10F7 JUMPI PUSH32 0x4E487B7100000000000000000000000000000000000000000000000000000000 PUSH1 0x0 MSTORE PUSH1 0x32 PUSH1 0x4 MSTORE PUSH1 0x24 PUSH1 0x0 REVERT JUMPDEST PUSH1 0x20 MUL PUSH1 0x20 ADD ADD DUP2 SWAP1 MSTORE POP PUSH1 0x40 MLOAD DUP1 PUSH1 0x40 ADD PUSH1 0x40 MSTORE DUP1 PUSH32 0x1DFC2AB1B4265B21F6224581B8BA7ECC7C3F066DC989F504E044F9EB2588AD63 DUP2 MSTORE PUSH1 0x20 ADD PUSH32 0xED8A8D4426B737D0260C0C8AEA00F11342DD6FA8C97CF537847263C8A95F199 DUP2 MSTORE POP DUP2 PUSH1 0x80 ADD MLOAD PUSH1 0xA DUP2 MLOAD DUP2 LT PUSH2 0x1195 JUMPI PUSH32 0x4E487B7100000000000000000000000000000000000000000000000000000000 PUSH1 0x0 MSTORE PUSH1 0x32 PUSH1 0x4 MSTORE PUSH1 0x24 PUSH1 0x0 REVERT JUMPDEST PUSH1 0x20 MUL PUSH1 0x20 ADD ADD DUP2 SWAP1 MSTORE POP PUSH1 0x40 MLOAD DUP1 PUSH1 0x40 ADD PUSH1 0x40 MSTORE DUP1 PUSH32 0x2E94249DD9C121B2CB15EB0B38C4F0A4B219666B918D29286D6EE85E76D4F546 DUP2 MSTORE PUSH1 0x20 ADD PUSH32 0x1A99F59DCE564FAFB37E6AE58C0C31B8AC1ACC9DFDF04022777E4D3E3D4C9494 DUP2 MSTORE POP DUP2 PUSH1 0x80 ADD MLOAD PUSH1 0xB DUP2 MLOAD DUP2 LT PUSH2 0x1233 JUMPI PUSH32 0x4E487B7100000000000000000000000000000000000000000000000000000000 PUSH1 0x0 MSTORE PUSH1 0x32 PUSH1 0x4 MSTORE PUSH1 0x24 PUSH1 0x0 REVERT JUMPDEST PUSH1 0x20 MUL PUSH1 0x20 ADD ADD DUP2 SWAP1 MSTORE POP PUSH1 0x40 MLOAD DUP1 PUSH1 0x40 ADD PUSH1 0x40 MSTORE DUP1 PUSH32 0x1505446EF000D1366FB562453C31D2D7AC084C2F3425E74F51025E76173153E DUP2 MSTORE PUSH1 0x20 ADD PUSH32 0x1E3DE5C952756D90D0AF5584E645AEB9251774AB7A960E5922081A4015A9C745 DUP2 MSTORE POP DUP2 PUSH1 0x80 ADD MLOAD PUSH1 0xC DUP2 MLOAD DUP2 LT PUSH2 0x12D1 JUMPI PUSH32 0x4E487B7100000000000000000000000000000000000000000000000000000000 PUSH1 0x0 MSTORE PUSH1 0x32 PUSH1 0x4 MSTORE PUSH1 0x24 PUSH1 0x0 REVERT JUMPDEST PUSH1 0x20 MUL PUSH1 0x20 ADD ADD DUP2 SWAP1 MSTORE POP PUSH1 0x40 MLOAD DUP1 PUSH1 0x40 ADD PUSH1 0x40 MSTORE DUP1 PUSH32 0xFF6AD2F171F82352F3D6A4DE5CB7EC9419504113AAA1245DD41B0FBEA67CAB9 DUP2 MSTORE PUSH1 0x20 ADD PUSH32 0x27ADFC2ED724052ECD41053A443784157F0F4165C685AD5F3624C1707A153FBD DUP2 MSTORE POP DUP2 PUSH1 0x80 ADD MLOAD PUSH1 0xD DUP2 MLOAD DUP2 LT PUSH2 0x136F JUMPI PUSH32 0x4E487B7100000000000000000000000000000000000000000000000000000000 PUSH1 0x0 MSTORE PUSH1 0x32 PUSH1 0x4 MSTORE PUSH1 0x24 PUSH1 0x0 REVERT JUMPDEST PUSH1 0x20 MUL PUSH1 0x20 ADD ADD DUP2 SWAP1 MSTORE POP SWAP1 JUMP JUMPDEST PUSH2 0x1385 PUSH2 0x2142 JUMP JUMPDEST PUSH2 0x138D PUSH2 0x215C JUMP JUMPDEST DUP4 PUSH1 0x0 ADD MLOAD DUP2 PUSH1 0x0 PUSH1 0x3 DUP2 LT PUSH2 0x13CC JUMPI PUSH32 0x4E487B7100000000000000000000000000000000000000000000000000000000 PUSH1 0x0 MSTORE PUSH1 0x32 PUSH1 0x4 MSTORE PUSH1 0x24 PUSH1 0x0 REVERT JUMPDEST PUSH1 0x20 MUL ADD DUP2 DUP2 MSTORE POP POP DUP4 PUSH1 0x20 ADD MLOAD DUP2 PUSH1 0x1 PUSH1 0x3 DUP2 LT PUSH2 0x1414 JUMPI PUSH32 0x4E487B7100000000000000000000000000000000000000000000000000000000 PUSH1 0x0 MSTORE PUSH1 0x32 PUSH1 0x4 MSTORE PUSH1 0x24 PUSH1 0x0 REVERT JUMPDEST PUSH1 0x20 MUL ADD DUP2 DUP2 MSTORE POP POP DUP3 DUP2 PUSH1 0x2 PUSH1 0x3 DUP2 LT PUSH2 0x1458 JUMPI PUSH32 0x4E487B7100000000000000000000000000000000000000000000000000000000 PUSH1 0x0 MSTORE PUSH1 0x32 PUSH1 0x4 MSTORE PUSH1 0x24 PUSH1 0x0 REVERT JUMPDEST PUSH1 0x20 MUL ADD DUP2 DUP2 MSTORE POP POP PUSH1 0x0 PUSH1 0x60 DUP4 PUSH1 0x80 DUP5 PUSH1 0x7 PUSH2 0x7D0 GAS SUB STATICCALL SWAP1 POP DUP1 PUSH1 0x0 DUP2 EQ PUSH2 0x1481 JUMPI PUSH2 0x1483 JUMP JUMPDEST INVALID JUMPDEST POP DUP1 PUSH2 0x14C4 JUMPI PUSH1 0x40 MLOAD PUSH32 0x8C379A000000000000000000000000000000000000000000000000000000000 DUP2 MSTORE PUSH1 0x4 ADD PUSH2 0x14BB SWAP1 PUSH2 0x253E JUMP JUMPDEST PUSH1 0x40 MLOAD DUP1 SWAP2 SUB SWAP1 REVERT JUMPDEST POP POP SWAP3 SWAP2 POP POP JUMP JUMPDEST PUSH2 0x14D4 PUSH2 0x2142 JUMP JUMPDEST PUSH2 0x14DC PUSH2 0x217E JUMP JUMPDEST DUP4 PUSH1 0x0 ADD MLOAD DUP2 PUSH1 0x0 PUSH1 0x4 DUP2 LT PUSH2 0x151B JUMPI PUSH32 0x4E487B7100000000000000000000000000000000000000000000000000000000 PUSH1 0x0 MSTORE PUSH1 0x32 PUSH1 0x4 MSTORE PUSH1 0x24 PUSH1 0x0 REVERT JUMPDEST PUSH1 0x20 MUL ADD DUP2 DUP2 MSTORE POP POP DUP4 PUSH1 0x20 ADD MLOAD DUP2 PUSH1 0x1 PUSH1 0x4 DUP2 LT PUSH2 0x1563 JUMPI PUSH32 0x4E487B7100000000000000000000000000000000000000000000000000000000 PUSH1 0x0 MSTORE PUSH1 0x32 PUSH1 0x4 MSTORE PUSH1 0x24 PUSH1 0x0 REVERT JUMPDEST PUSH1 0x20 MUL ADD DUP2 DUP2 MSTORE POP POP DUP3 PUSH1 0x0 ADD MLOAD DUP2 PUSH1 0x2 PUSH1 0x4 DUP2 LT PUSH2 0x15AB JUMPI PUSH32 0x4E487B7100000000000000000000000000000000000000000000000000000000 PUSH1 0x0 MSTORE PUSH1 0x32 PUSH1 0x4 MSTORE PUSH1 0x24 PUSH1 0x0 REVERT JUMPDEST PUSH1 0x20 MUL ADD DUP2 DUP2 MSTORE POP POP DUP3 PUSH1 0x20 ADD MLOAD DUP2 PUSH1 0x3 PUSH1 0x4 DUP2 LT PUSH2 0x15F3 JUMPI PUSH32 0x4E487B7100000000000000000000000000000000000000000000000000000000 PUSH1 0x0 MSTORE PUSH1 0x32 PUSH1 0x4 MSTORE PUSH1 0x24 PUSH1 0x0 REVERT JUMPDEST PUSH1 0x20 MUL ADD DUP2 DUP2 MSTORE POP POP PUSH1 0x0 PUSH1 0x60 DUP4 PUSH1 0xC0 DUP5 PUSH1 0x6 PUSH2 0x7D0 GAS SUB STATICCALL SWAP1 POP DUP1 PUSH1 0x0 DUP2 EQ PUSH2 0x161C JUMPI PUSH2 0x161E JUMP JUMPDEST INVALID JUMPDEST POP DUP1 PUSH2 0x165F JUMPI PUSH1 0x40 MLOAD PUSH32 0x8C379A000000000000000000000000000000000000000000000000000000000 DUP2 MSTORE PUSH1 0x4 ADD PUSH2 0x1656 SWAP1 PUSH2 0x259E JUMP JUMPDEST PUSH1 0x40 MLOAD DUP1 SWAP2 SUB SWAP1 REVERT JUMPDEST POP POP SWAP3 SWAP2 POP POP JUMP JUMPDEST PUSH2 0x166F PUSH2 0x2142 JUMP JUMPDEST PUSH1 0x0 PUSH32 0x30644E72E131A029B85045B68181585D97816A916871CA8D3C208C16D87CFD47 SWAP1 POP PUSH1 0x0 DUP4 PUSH1 0x0 ADD MLOAD EQ DUP1 ISZERO PUSH2 0x16AC JUMPI POP PUSH1 0x0 DUP4 PUSH1 0x20 ADD MLOAD EQ JUMPDEST ISZERO PUSH2 0x16D0 JUMPI PUSH1 0x40 MLOAD DUP1 PUSH1 0x40 ADD PUSH1 0x40 MSTORE DUP1 PUSH1 0x0 DUP2 MSTORE PUSH1 0x20 ADD PUSH1 0x0 DUP2 MSTORE POP SWAP2 POP POP PUSH2 0x1707 JUMP JUMPDEST PUSH1 0x40 MLOAD DUP1 PUSH1 0x40 ADD PUSH1 0x40 MSTORE DUP1 DUP5 PUSH1 0x0 ADD MLOAD DUP2 MSTORE PUSH1 0x20 ADD DUP3 DUP6 PUSH1 0x20 ADD MLOAD PUSH2 0x16F5 SWAP2 SWAP1 PUSH2 0x27FA JUMP JUMPDEST DUP4 PUSH2 0x1700 SWAP2 SWAP1 PUSH2 0x2736 JUMP JUMPDEST DUP2 MSTORE POP SWAP2 POP POP JUMPDEST SWAP2 SWAP1 POP JUMP JUMPDEST PUSH1 0x0 DUP1 PUSH1 0x4 PUSH8 0xFFFFFFFFFFFFFFFF DUP2 GT ISZERO PUSH2 0x1750 JUMPI PUSH32 0x4E487B7100000000000000000000000000000000000000000000000000000000 PUSH1 0x0 MSTORE PUSH1 0x41 PUSH1 0x4 MSTORE PUSH1 0x24 PUSH1 0x0 REVERT JUMPDEST PUSH1 0x40 MLOAD SWAP1 DUP1 DUP3 MSTORE DUP1 PUSH1 0x20 MUL PUSH1 0x20 ADD DUP3 ADD PUSH1 0x40 MSTORE DUP1 ISZERO PUSH2 0x1789 JUMPI DUP2 PUSH1 0x20 ADD JUMPDEST PUSH2 0x1776 PUSH2 0x2142 JUMP JUMPDEST DUP2 MSTORE PUSH1 0x20 ADD SWAP1 PUSH1 0x1 SWAP1 SUB SWAP1 DUP2 PUSH2 0x176E JUMPI SWAP1 POP JUMPDEST POP SWAP1 POP PUSH1 0x0 PUSH1 0x4 PUSH8 0xFFFFFFFFFFFFFFFF DUP2 GT ISZERO PUSH2 0x17CF JUMPI PUSH32 0x4E487B7100000000000000000000000000000000000000000000000000000000 PUSH1 0x0 MSTORE PUSH1 0x41 PUSH1 0x4 MSTORE PUSH1 0x24 PUSH1 0x0 REVERT JUMPDEST PUSH1 0x40 MLOAD SWAP1 DUP1 DUP3 MSTORE DUP1 PUSH1 0x20 MUL PUSH1 0x20 ADD DUP3 ADD PUSH1 0x40 MSTORE DUP1 ISZERO PUSH2 0x1808 JUMPI DUP2 PUSH1 0x20 ADD JUMPDEST PUSH2 0x17F5 PUSH2 0x21A0 JUMP JUMPDEST DUP2 MSTORE PUSH1 0x20 ADD SWAP1 PUSH1 0x1 SWAP1 SUB SWAP1 DUP2 PUSH2 0x17ED JUMPI SWAP1 POP JUMPDEST POP SWAP1 POP DUP11 DUP3 PUSH1 0x0 DUP2 MLOAD DUP2 LT PUSH2 0x1846 JUMPI PUSH32 0x4E487B7100000000000000000000000000000000000000000000000000000000 PUSH1 0x0 MSTORE PUSH1 0x32 PUSH1 0x4 MSTORE PUSH1 0x24 PUSH1 0x0 REVERT JUMPDEST PUSH1 0x20 MUL PUSH1 0x20 ADD ADD DUP2 SWAP1 MSTORE POP DUP9 DUP3 PUSH1 0x1 DUP2 MLOAD DUP2 LT PUSH2 0x188C JUMPI PUSH32 0x4E487B7100000000000000000000000000000000000000000000000000000000 PUSH1 0x0 MSTORE PUSH1 0x32 PUSH1 0x4 MSTORE PUSH1 0x24 PUSH1 0x0 REVERT JUMPDEST PUSH1 0x20 MUL PUSH1 0x20 ADD ADD DUP2 SWAP1 MSTORE POP DUP7 DUP3 PUSH1 0x2 DUP2 MLOAD DUP2 LT PUSH2 0x18D2 JUMPI PUSH32 0x4E487B7100000000000000000000000000000000000000000000000000000000 PUSH1 0x0 MSTORE PUSH1 0x32 PUSH1 0x4 MSTORE PUSH1 0x24 PUSH1 0x0 REVERT JUMPDEST PUSH1 0x20 MUL PUSH1 0x20 ADD ADD DUP2 SWAP1 MSTORE POP DUP5 DUP3 PUSH1 0x3 DUP2 MLOAD DUP2 LT PUSH2 0x1918 JUMPI PUSH32 0x4E487B7100000000000000000000000000000000000000000000000000000000 PUSH1 0x0 MSTORE PUSH1 0x32 PUSH1 0x4 MSTORE PUSH1 0x24 PUSH1 0x0 REVERT JUMPDEST PUSH1 0x20 MUL PUSH1 0x20 ADD ADD DUP2 SWAP1 MSTORE POP DUP10 DUP2 PUSH1 0x0 DUP2 MLOAD DUP2 LT PUSH2 0x195E JUMPI PUSH32 0x4E487B7100000000000000000000000000000000000000000000000000000000 PUSH1 0x0 MSTORE PUSH1 0x32 PUSH1 0x4 MSTORE PUSH1 0x24 PUSH1 0x0 REVERT JUMPDEST PUSH1 0x20 MUL PUSH1 0x20 ADD ADD DUP2 SWAP1 MSTORE POP DUP8 DUP2 PUSH1 0x1 DUP2 MLOAD DUP2 LT PUSH2 0x19A4 JUMPI PUSH32 0x4E487B7100000000000000000000000000000000000000000000000000000000 PUSH1 0x0 MSTORE PUSH1 0x32 PUSH1 0x4 MSTORE PUSH1 0x24 PUSH1 0x0 REVERT JUMPDEST PUSH1 0x20 MUL PUSH1 0x20 ADD ADD DUP2 SWAP1 MSTORE POP DUP6 DUP2 PUSH1 0x2 DUP2 MLOAD DUP2 LT PUSH2 0x19EA JUMPI PUSH32 0x4E487B7100000000000000000000000000000000000000000000000000000000 PUSH1 0x0 MSTORE PUSH1 0x32 PUSH1 0x4 MSTORE PUSH1 0x24 PUSH1 0x0 REVERT JUMPDEST PUSH1 0x20 MUL PUSH1 0x20 ADD ADD DUP2 SWAP1 MSTORE POP DUP4 DUP2 PUSH1 0x3 DUP2 MLOAD DUP2 LT PUSH2 0x1A30 JUMPI PUSH32 0x4E487B7100000000000000000000000000000000000000000000000000000000 PUSH1 0x0 MSTORE PUSH1 0x32 PUSH1 0x4 MSTORE PUSH1 0x24 PUSH1 0x0 REVERT JUMPDEST PUSH1 0x20 MUL PUSH1 0x20 ADD ADD DUP2 SWAP1 MSTORE POP PUSH2 0x1A45 DUP3 DUP3 PUSH2 0x1A55 JUMP JUMPDEST SWAP3 POP POP POP SWAP9 SWAP8 POP POP POP POP POP POP POP POP JUMP JUMPDEST PUSH1 0x0 DUP2 MLOAD DUP4 MLOAD EQ PUSH2 0x1A9B JUMPI PUSH1 0x40 MLOAD PUSH32 0x8C379A000000000000000000000000000000000000000000000000000000000 DUP2 MSTORE PUSH1 0x4 ADD PUSH2 0x1A92 SWAP1 PUSH2 0x257E JUMP JUMPDEST PUSH1 0x40 MLOAD DUP1 SWAP2 SUB SWAP1 REVERT JUMPDEST PUSH1 0x0 DUP4 MLOAD SWAP1 POP PUSH1 0x0 PUSH1 0x6 DUP3 PUSH2 0x1AB0 SWAP2 SWAP1 PUSH2 0x26DC JUMP JUMPDEST SWAP1 POP PUSH1 0x0 DUP2 PUSH8 0xFFFFFFFFFFFFFFFF DUP2 GT ISZERO PUSH2 0x1AF4 JUMPI PUSH32 0x4E487B7100000000000000000000000000000000000000000000000000000000 PUSH1 0x0 MSTORE PUSH1 0x41 PUSH1 0x4 MSTORE PUSH1 0x24 PUSH1 0x0 REVERT JUMPDEST PUSH1 0x40 MLOAD SWAP1 DUP1 DUP3 MSTORE DUP1 PUSH1 0x20 MUL PUSH1 0x20 ADD DUP3 ADD PUSH1 0x40 MSTORE DUP1 ISZERO PUSH2 0x1B22 JUMPI DUP2 PUSH1 0x20 ADD PUSH1 0x20 DUP3 MUL DUP1 CALLDATASIZE DUP4 CALLDATACOPY DUP1 DUP3 ADD SWAP2 POP POP SWAP1 POP JUMPDEST POP SWAP1 POP PUSH1 0x0 JUMPDEST DUP4 DUP2 LT ISZERO PUSH2 0x2007 JUMPI DUP7 DUP2 DUP2 MLOAD DUP2 LT PUSH2 0x1B69 JUMPI PUSH32 0x4E487B7100000000000000000000000000000000000000000000000000000000 PUSH1 0x0 MSTORE PUSH1 0x32 PUSH1 0x4 MSTORE PUSH1 0x24 PUSH1 0x0 REVERT JUMPDEST PUSH1 0x20 MUL PUSH1 0x20 ADD ADD MLOAD PUSH1 0x0 ADD MLOAD DUP3 PUSH1 0x0 PUSH1 0x6 DUP5 PUSH2 0x1B85 SWAP2 SWAP1 PUSH2 0x26DC JUMP JUMPDEST PUSH2 0x1B8F SWAP2 SWAP1 PUSH2 0x2686 JUMP JUMPDEST DUP2 MLOAD DUP2 LT PUSH2 0x1BC6 JUMPI PUSH32 0x4E487B7100000000000000000000000000000000000000000000000000000000 PUSH1 0x0 MSTORE PUSH1 0x32 PUSH1 0x4 MSTORE PUSH1 0x24 PUSH1 0x0 REVERT JUMPDEST PUSH1 0x20 MUL PUSH1 0x20 ADD ADD DUP2 DUP2 MSTORE POP POP DUP7 DUP2 DUP2 MLOAD DUP2 LT PUSH2 0x1C0B JUMPI PUSH32 0x4E487B7100000000000000000000000000000000000000000000000000000000 PUSH1 0x0 MSTORE PUSH1 0x32 PUSH1 0x4 MSTORE PUSH1 0x24 PUSH1 0x0 REVERT JUMPDEST PUSH1 0x20 MUL PUSH1 0x20 ADD ADD MLOAD PUSH1 0x20 ADD MLOAD DUP3 PUSH1 0x1 PUSH1 0x6 DUP5 PUSH2 0x1C27 SWAP2 SWAP1 PUSH2 0x26DC JUMP JUMPDEST PUSH2 0x1C31 SWAP2 SWAP1 PUSH2 0x2686 JUMP JUMPDEST DUP2 MLOAD DUP2 LT PUSH2 0x1C68 JUMPI PUSH32 0x4E487B7100000000000000000000000000000000000000000000000000000000 PUSH1 0x0 MSTORE PUSH1 0x32 PUSH1 0x4 MSTORE PUSH1 0x24 PUSH1 0x0 REVERT JUMPDEST PUSH1 0x20 MUL PUSH1 0x20 ADD ADD DUP2 DUP2 MSTORE POP POP DUP6 DUP2 DUP2 MLOAD DUP2 LT PUSH2 0x1CAD JUMPI PUSH32 0x4E487B7100000000000000000000000000000000000000000000000000000000 PUSH1 0x0 MSTORE PUSH1 0x32 PUSH1 0x4 MSTORE PUSH1 0x24 PUSH1 0x0 REVERT JUMPDEST PUSH1 0x20 MUL PUSH1 0x20 ADD ADD MLOAD PUSH1 0x0 ADD MLOAD PUSH1 0x0 PUSH1 0x2 DUP2 LT PUSH2 0x1CF2 JUMPI PUSH32 0x4E487B7100000000000000000000000000000000000000000000000000000000 PUSH1 0x0 MSTORE PUSH1 0x32 PUSH1 0x4 MSTORE PUSH1 0x24 PUSH1 0x0 REVERT JUMPDEST PUSH1 0x20 MUL ADD MLOAD DUP3 PUSH1 0x2 PUSH1 0x6 DUP5 PUSH2 0x1D07 SWAP2 SWAP1 PUSH2 0x26DC JUMP JUMPDEST PUSH2 0x1D11 SWAP2 SWAP1 PUSH2 0x2686 JUMP JUMPDEST DUP2 MLOAD DUP2 LT PUSH2 0x1D48 JUMPI PUSH32 0x4E487B7100000000000000000000000000000000000000000000000000000000 PUSH1 0x0 MSTORE PUSH1 0x32 PUSH1 0x4 MSTORE PUSH1 0x24 PUSH1 0x0 REVERT JUMPDEST PUSH1 0x20 MUL PUSH1 0x20 ADD ADD DUP2 DUP2 MSTORE POP POP DUP6 DUP2 DUP2 MLOAD DUP2 LT PUSH2 0x1D8D JUMPI PUSH32 0x4E487B7100000000000000000000000000000000000000000000000000000000 PUSH1 0x0 MSTORE PUSH1 0x32 PUSH1 0x4 MSTORE PUSH1 0x24 PUSH1 0x0 REVERT JUMPDEST PUSH1 0x20 MUL PUSH1 0x20 ADD ADD MLOAD PUSH1 0x0 ADD MLOAD PUSH1 0x1 PUSH1 0x2 DUP2 LT PUSH2 0x1DD2 JUMPI PUSH32 0x4E487B7100000000000000000000000000000000000000000000000000000000 PUSH1 0x0 MSTORE PUSH1 0x32 PUSH1 0x4 MSTORE PUSH1 0x24 PUSH1 0x0 REVERT JUMPDEST PUSH1 0x20 MUL ADD MLOAD DUP3 PUSH1 0x3 PUSH1 0x6 DUP5 PUSH2 0x1DE7 SWAP2 SWAP1 PUSH2 0x26DC JUMP JUMPDEST PUSH2 0x1DF1 SWAP2 SWAP1 PUSH2 0x2686 JUMP JUMPDEST DUP2 MLOAD DUP2 LT PUSH2 0x1E28 JUMPI PUSH32 0x4E487B7100000000000000000000000000000000000000000000000000000000 PUSH1 0x0 MSTORE PUSH1 0x32 PUSH1 0x4 MSTORE PUSH1 0x24 PUSH1 0x0 REVERT JUMPDEST PUSH1 0x20 MUL PUSH1 0x20 ADD ADD DUP2 DUP2 MSTORE POP POP DUP6 DUP2 DUP2 MLOAD DUP2 LT PUSH2 0x1E6D JUMPI PUSH32 0x4E487B7100000000000000000000000000000000000000000000000000000000 PUSH1 0x0 MSTORE PUSH1 0x32 PUSH1 0x4 MSTORE PUSH1 0x24 PUSH1 0x0 REVERT JUMPDEST PUSH1 0x20 MUL PUSH1 0x20 ADD ADD MLOAD PUSH1 0x20 ADD MLOAD PUSH1 0x0 PUSH1 0x2 DUP2 LT PUSH2 0x1EB2 JUMPI PUSH32 0x4E487B7100000000000000000000000000000000000000000000000000000000 PUSH1 0x0 MSTORE PUSH1 0x32 PUSH1 0x4 MSTORE PUSH1 0x24 PUSH1 0x0 REVERT JUMPDEST PUSH1 0x20 MUL ADD MLOAD DUP3 PUSH1 0x4 PUSH1 0x6 DUP5 PUSH2 0x1EC7 SWAP2 SWAP1 PUSH2 0x26DC JUMP JUMPDEST PUSH2 0x1ED1 SWAP2 SWAP1 PUSH2 0x2686 JUMP JUMPDEST DUP2 MLOAD DUP2 LT PUSH2 0x1F08 JUMPI PUSH32 0x4E487B7100000000000000000000000000000000000000000000000000000000 PUSH1 0x0 MSTORE PUSH1 0x32 PUSH1 0x4 MSTORE PUSH1 0x24 PUSH1 0x0 REVERT JUMPDEST PUSH1 0x20 MUL PUSH1 0x20 ADD ADD DUP2 DUP2 MSTORE POP POP DUP6 DUP2 DUP2 MLOAD DUP2 LT PUSH2 0x1F4D JUMPI PUSH32 0x4E487B7100000000000000000000000000000000000000000000000000000000 PUSH1 0x0 MSTORE PUSH1 0x32 PUSH1 0x4 MSTORE PUSH1 0x24 PUSH1 0x0 REVERT JUMPDEST PUSH1 0x20 MUL PUSH1 0x20 ADD ADD MLOAD PUSH1 0x20 ADD MLOAD PUSH1 0x1 PUSH1 0x2 DUP2 LT PUSH2 0x1F92 JUMPI PUSH32 0x4E487B7100000000000000000000000000000000000000000000000000000000 PUSH1 0x0 MSTORE PUSH1 0x32 PUSH1 0x4 MSTORE PUSH1 0x24 PUSH1 0x0 REVERT JUMPDEST PUSH1 0x20 MUL ADD MLOAD DUP3 PUSH1 0x5 PUSH1 0x6 DUP5 PUSH2 0x1FA7 SWAP2 SWAP1 PUSH2 0x26DC JUMP JUMPDEST PUSH2 0x1FB1 SWAP2 SWAP1 PUSH2 0x2686 JUMP JUMPDEST DUP2 MLOAD DUP2 LT PUSH2 0x1FE8 JUMPI PUSH32 0x4E487B7100000000000000000000000000000000000000000000000000000000 PUSH1 0x0 MSTORE PUSH1 0x32 PUSH1 0x4 MSTORE PUSH1 0x24 PUSH1 0x0 REVERT JUMPDEST PUSH1 0x20 MUL PUSH1 0x20 ADD ADD DUP2 DUP2 MSTORE POP POP DUP1 DUP1 PUSH2 0x1FFF SWAP1 PUSH2 0x27B1 JUMP JUMPDEST SWAP2 POP POP PUSH2 0x1B28 JUMP JUMPDEST POP PUSH2 0x2010 PUSH2 0x21C6 JUMP JUMPDEST PUSH1 0x0 PUSH1 0x20 DUP3 PUSH1 0x20 DUP7 MUL PUSH1 0x20 DUP7 ADD PUSH1 0x8 PUSH2 0x7D0 GAS SUB STATICCALL SWAP1 POP DUP1 PUSH1 0x0 DUP2 EQ PUSH2 0x2035 JUMPI PUSH2 0x2037 JUMP JUMPDEST INVALID JUMPDEST POP DUP1 PUSH2 0x2078 JUMPI PUSH1 0x40 MLOAD PUSH32 0x8C379A000000000000000000000000000000000000000000000000000000000 DUP2 MSTORE PUSH1 0x4 ADD PUSH2 0x206F SWAP1 PUSH2 0x25BE JUMP JUMPDEST PUSH1 0x40 MLOAD DUP1 SWAP2 SUB SWAP1 REVERT JUMPDEST PUSH1 0x0 DUP3 PUSH1 0x0 PUSH1 0x1 DUP2 LT PUSH2 0x20B4 JUMPI PUSH32 0x4E487B7100000000000000000000000000000000000000000000000000000000 PUSH1 0x0 MSTORE PUSH1 0x32 PUSH1 0x4 MSTORE PUSH1 0x24 PUSH1 0x0 REVERT JUMPDEST PUSH1 0x20 MUL ADD MLOAD EQ ISZERO SWAP6 POP POP POP POP POP POP SWAP3 SWAP2 POP POP JUMP JUMPDEST PUSH1 0x40 MLOAD DUP1 PUSH1 0x60 ADD PUSH1 0x40 MSTORE DUP1 PUSH2 0x20DB PUSH2 0x2142 JUMP JUMPDEST DUP2 MSTORE PUSH1 0x20 ADD PUSH2 0x20E8 PUSH2 0x21A0 JUMP JUMPDEST DUP2 MSTORE PUSH1 0x20 ADD PUSH2 0x20F5 PUSH2 0x2142 JUMP JUMPDEST DUP2 MSTORE POP SWAP1 JUMP JUMPDEST PUSH1 0x40 MLOAD DUP1 PUSH1 0xA0 ADD PUSH1 0x40 MSTORE DUP1 PUSH2 0x210E PUSH2 0x2142 JUMP JUMPDEST DUP2 MSTORE PUSH1 0x20 ADD PUSH2 0x211B PUSH2 0x21A0 JUMP JUMPDEST DUP2 MSTORE PUSH1 0x20 ADD PUSH2 0x2128 PUSH2 0x21A0 JUMP JUMPDEST DUP2 MSTORE PUSH1 0x20 ADD PUSH2 0x2135 PUSH2 0x21A0 JUMP JUMPDEST DUP2 MSTORE PUSH1 0x20 ADD PUSH1 0x60 DUP2 MSTORE POP SWAP1 JUMP JUMPDEST PUSH1 0x40 MLOAD DUP1 PUSH1 0x40 ADD PUSH1 0x40 MSTORE DUP1 PUSH1 0x0 DUP2 MSTORE PUSH1 0x20 ADD PUSH1 0x0 DUP2 MSTORE POP SWAP1 JUMP JUMPDEST PUSH1 0x40 MLOAD DUP1 PUSH1 0x60 ADD PUSH1 0x40 MSTORE DUP1 PUSH1 0x3 SWAP1 PUSH1 0x20 DUP3 MUL DUP1 CALLDATASIZE DUP4 CALLDATACOPY DUP1 DUP3 ADD SWAP2 POP POP SWAP1 POP POP SWAP1 JUMP JUMPDEST PUSH1 0x40 MLOAD DUP1 PUSH1 0x80 ADD PUSH1 0x40 MSTORE DUP1 PUSH1 0x4 SWAP1 PUSH1 0x20 DUP3 MUL DUP1 CALLDATASIZE DUP4 CALLDATACOPY DUP1 DUP3 ADD SWAP2 POP POP SWAP1 POP POP SWAP1 JUMP JUMPDEST PUSH1 0x40 MLOAD DUP1 PUSH1 0x40 ADD PUSH1 0x40 MSTORE DUP1 PUSH2 0x21B3 PUSH2 0x21E8 JUMP JUMPDEST DUP2 MSTORE PUSH1 0x20 ADD PUSH2 0x21C0 PUSH2 0x21E8 JUMP JUMPDEST DUP2 MSTORE POP SWAP1 JUMP JUMPDEST PUSH1 0x40 MLOAD DUP1 PUSH1 0x20 ADD PUSH1 0x40 MSTORE DUP1 PUSH1 0x1 SWAP1 PUSH1 0x20 DUP3 MUL DUP1 CALLDATASIZE DUP4 CALLDATACOPY DUP1 DUP3 ADD SWAP2 POP POP SWAP1 POP POP SWAP1 JUMP JUMPDEST PUSH1 0x40 MLOAD DUP1 PUSH1 0x40 ADD PUSH1 0x40 MSTORE DUP1 PUSH1 0x2 SWAP1 PUSH1 0x20 DUP3 MUL DUP1 CALLDATASIZE DUP4 CALLDATACOPY DUP1 DUP3 ADD SWAP2 POP POP SWAP1 POP POP SWAP1 JUMP JUMPDEST PUSH1 0x0 PUSH2 0x221D PUSH2 0x2218 DUP5 PUSH2 0x2603 JUMP JUMPDEST PUSH2 0x25DE JUMP JUMPDEST SWAP1 POP DUP1 DUP3 DUP6 PUSH1 0x40 DUP7 MUL DUP3 ADD GT ISZERO PUSH2 0x2233 JUMPI PUSH1 0x0 DUP1 REVERT JUMPDEST PUSH1 0x0 JUMPDEST DUP6 DUP2 LT ISZERO PUSH2 0x2263 JUMPI DUP2 PUSH2 0x2249 DUP9 DUP3 PUSH2 0x2381 JUMP JUMPDEST DUP5 MSTORE PUSH1 0x20 DUP5 ADD SWAP4 POP PUSH1 0x40 DUP4 ADD SWAP3 POP POP PUSH1 0x1 DUP2 ADD SWAP1 POP PUSH2 0x2236 JUMP JUMPDEST POP POP POP SWAP4 SWAP3 POP POP POP JUMP JUMPDEST PUSH1 0x0 PUSH2 0x2280 PUSH2 0x227B DUP5 PUSH2 0x2629 JUMP JUMPDEST PUSH2 0x25DE JUMP JUMPDEST SWAP1 POP DUP1 DUP3 DUP6 PUSH1 0x20 DUP7 MUL DUP3 ADD GT ISZERO PUSH2 0x2296 JUMPI PUSH1 0x0 DUP1 REVERT JUMPDEST PUSH1 0x0 JUMPDEST DUP6 DUP2 LT ISZERO PUSH2 0x22C6 JUMPI DUP2 PUSH2 0x22AC DUP9 DUP3 PUSH2 0x23A8 JUMP JUMPDEST DUP5 MSTORE PUSH1 0x20 DUP5 ADD SWAP4 POP PUSH1 0x20 DUP4 ADD SWAP3 POP POP PUSH1 0x1 DUP2 ADD SWAP1 POP PUSH2 0x2299 JUMP JUMPDEST POP POP POP SWAP4 SWAP3 POP POP POP JUMP JUMPDEST PUSH1 0x0 PUSH2 0x22E3 PUSH2 0x22DE DUP5 PUSH2 0x264F JUMP JUMPDEST PUSH2 0x25DE JUMP JUMPDEST SWAP1 POP DUP1 DUP3 DUP6 PUSH1 0x20 DUP7 MUL DUP3 ADD GT ISZERO PUSH2 0x22F9 JUMPI PUSH1 0x0 DUP1 REVERT JUMPDEST PUSH1 0x0 JUMPDEST DUP6 DUP2 LT ISZERO PUSH2 0x2329 JUMPI DUP2 PUSH2 0x230F DUP9 DUP3 PUSH2 0x23A8 JUMP JUMPDEST DUP5 MSTORE PUSH1 0x20 DUP5 ADD SWAP4 POP PUSH1 0x20 DUP4 ADD SWAP3 POP POP PUSH1 0x1 DUP2 ADD SWAP1 POP PUSH2 0x22FC JUMP JUMPDEST POP POP POP SWAP4 SWAP3 POP POP POP JUMP JUMPDEST PUSH1 0x0 DUP3 PUSH1 0x1F DUP4 ADD SLT PUSH2 0x2344 JUMPI PUSH1 0x0 DUP1 REVERT JUMPDEST PUSH1 0x2 PUSH2 0x2351 DUP5 DUP3 DUP6 PUSH2 0x220A JUMP JUMPDEST SWAP2 POP POP SWAP3 SWAP2 POP POP JUMP JUMPDEST PUSH1 0x0 DUP3 PUSH1 0x1F DUP4 ADD SLT PUSH2 0x236B JUMPI PUSH1 0x0 DUP1 REVERT JUMPDEST PUSH1 0xD PUSH2 0x2378 DUP5 DUP3 DUP6 PUSH2 0x226D JUMP JUMPDEST SWAP2 POP POP SWAP3 SWAP2 POP POP JUMP JUMPDEST PUSH1 0x0 DUP3 PUSH1 0x1F DUP4 ADD SLT PUSH2 0x2392 JUMPI PUSH1 0x0 DUP1 REVERT JUMPDEST PUSH1 0x2 PUSH2 0x239F DUP5 DUP3 DUP6 PUSH2 0x22D0 JUMP JUMPDEST SWAP2 POP POP SWAP3 SWAP2 POP POP JUMP JUMPDEST PUSH1 0x0 DUP2 CALLDATALOAD SWAP1 POP PUSH2 0x23B7 DUP2 PUSH2 0x29BF JUMP JUMPDEST SWAP3 SWAP2 POP POP JUMP JUMPDEST PUSH1 0x0 DUP1 PUSH1 0x0 DUP1 PUSH2 0x2A0 DUP6 DUP8 SUB SLT ISZERO PUSH2 0x23D4 JUMPI PUSH1 0x0 DUP1 REVERT JUMPDEST PUSH1 0x0 PUSH2 0x23E2 DUP8 DUP3 DUP9 ADD PUSH2 0x2381 JUMP JUMPDEST SWAP5 POP POP PUSH1 0x40 PUSH2 0x23F3 DUP8 DUP3 DUP9 ADD PUSH2 0x2333 JUMP JUMPDEST SWAP4 POP POP PUSH1 0xC0 PUSH2 0x2404 DUP8 DUP3 DUP9 ADD PUSH2 0x2381 JUMP JUMPDEST SWAP3 POP POP PUSH2 0x100 PUSH2 0x2416 DUP8 DUP3 DUP9 ADD PUSH2 0x235A JUMP JUMPDEST SWAP2 POP POP SWAP3 SWAP6 SWAP2 SWAP5 POP SWAP3 POP JUMP JUMPDEST PUSH2 0x242B DUP2 PUSH2 0x276A JUMP JUMPDEST DUP3 MSTORE POP POP JUMP JUMPDEST PUSH1 0x0 PUSH2 0x243E PUSH1 0x12 DUP4 PUSH2 0x2675 JUMP JUMPDEST SWAP2 POP PUSH2 0x2449 DUP3 PUSH2 0x28C9 JUMP JUMPDEST PUSH1 0x20 DUP3 ADD SWAP1 POP SWAP2 SWAP1 POP JUMP JUMPDEST PUSH1 0x0 PUSH2 0x2461 PUSH1 0x12 DUP4 PUSH2 0x2675 JUMP JUMPDEST SWAP2 POP PUSH2 0x246C DUP3 PUSH2 0x28F2 JUMP JUMPDEST PUSH1 0x20 DUP3 ADD SWAP1 POP SWAP2 SWAP1 POP JUMP JUMPDEST PUSH1 0x0 PUSH2 0x2484 PUSH1 0x1F DUP4 PUSH2 0x2675 JUMP JUMPDEST SWAP2 POP PUSH2 0x248F DUP3 PUSH2 0x291B JUMP JUMPDEST PUSH1 0x20 DUP3 ADD SWAP1 POP SWAP2 SWAP1 POP JUMP JUMPDEST PUSH1 0x0 PUSH2 0x24A7 PUSH1 0x16 DUP4 PUSH2 0x2675 JUMP JUMPDEST SWAP2 POP PUSH2 0x24B2 DUP3 PUSH2 0x2944 JUMP JUMPDEST PUSH1 0x20 DUP3 ADD SWAP1 POP SWAP2 SWAP1 POP JUMP JUMPDEST PUSH1 0x0 PUSH2 0x24CA PUSH1 0x12 DUP4 PUSH2 0x2675 JUMP JUMPDEST SWAP2 POP PUSH2 0x24D5 DUP3 PUSH2 0x296D JUMP JUMPDEST PUSH1 0x20 DUP3 ADD SWAP1 POP SWAP2 SWAP1 POP JUMP JUMPDEST PUSH1 0x0 PUSH2 0x24ED PUSH1 0x15 DUP4 PUSH2 0x2675 JUMP JUMPDEST SWAP2 POP PUSH2 0x24F8 DUP3 PUSH2 0x2996 JUMP JUMPDEST PUSH1 0x20 DUP3 ADD SWAP1 POP SWAP2 SWAP1 POP JUMP JUMPDEST PUSH1 0x0 PUSH1 0x20 DUP3 ADD SWAP1 POP PUSH2 0x2518 PUSH1 0x0 DUP4 ADD DUP5 PUSH2 0x2422 JUMP JUMPDEST SWAP3 SWAP2 POP POP JUMP JUMPDEST PUSH1 0x0 PUSH1 0x20 DUP3 ADD SWAP1 POP DUP2 DUP2 SUB PUSH1 0x0 DUP4 ADD MSTORE PUSH2 0x2537 DUP2 PUSH2 0x2431 JUMP JUMPDEST SWAP1 POP SWAP2 SWAP1 POP JUMP JUMPDEST PUSH1 0x0 PUSH1 0x20 DUP3 ADD SWAP1 POP DUP2 DUP2 SUB PUSH1 0x0 DUP4 ADD MSTORE PUSH2 0x2557 DUP2 PUSH2 0x2454 JUMP JUMPDEST SWAP1 POP SWAP2 SWAP1 POP JUMP JUMPDEST PUSH1 0x0 PUSH1 0x20 DUP3 ADD SWAP1 POP DUP2 DUP2 SUB PUSH1 0x0 DUP4 ADD MSTORE PUSH2 0x2577 DUP2 PUSH2 0x2477 JUMP JUMPDEST SWAP1 POP SWAP2 SWAP1 POP JUMP JUMPDEST PUSH1 0x0 PUSH1 0x20 DUP3 ADD SWAP1 POP DUP2 DUP2 SUB PUSH1 0x0 DUP4 ADD MSTORE PUSH2 0x2597 DUP2 PUSH2 0x249A JUMP JUMPDEST SWAP1 POP SWAP2 SWAP1 POP JUMP JUMPDEST PUSH1 0x0 PUSH1 0x20 DUP3 ADD SWAP1 POP DUP2 DUP2 SUB PUSH1 0x0 DUP4 ADD MSTORE PUSH2 0x25B7 DUP2 PUSH2 0x24BD JUMP JUMPDEST SWAP1 POP SWAP2 SWAP1 POP JUMP JUMPDEST PUSH1 0x0 PUSH1 0x20 DUP3 ADD SWAP1 POP DUP2 DUP2 SUB PUSH1 0x0 DUP4 ADD MSTORE PUSH2 0x25D7 DUP2 PUSH2 0x24E0 JUMP JUMPDEST SWAP1 POP SWAP2 SWAP1 POP JUMP JUMPDEST PUSH1 0x0 PUSH2 0x25E8 PUSH2 0x25F9 JUMP JUMPDEST SWAP1 POP PUSH2 0x25F4 DUP3 DUP3 PUSH2 0x2780 JUMP JUMPDEST SWAP2 SWAP1 POP JUMP JUMPDEST PUSH1 0x0 PUSH1 0x40 MLOAD SWAP1 POP SWAP1 JUMP JUMPDEST PUSH1 0x0 PUSH8 0xFFFFFFFFFFFFFFFF DUP3 GT ISZERO PUSH2 0x261E JUMPI PUSH2 0x261D PUSH2 0x2889 JUMP JUMPDEST JUMPDEST PUSH1 0x20 DUP3 MUL SWAP1 POP SWAP2 SWAP1 POP JUMP JUMPDEST PUSH1 0x0 PUSH8 0xFFFFFFFFFFFFFFFF DUP3 GT ISZERO PUSH2 0x2644 JUMPI PUSH2 0x2643 PUSH2 0x2889 JUMP JUMPDEST JUMPDEST PUSH1 0x20 DUP3 MUL SWAP1 POP SWAP2 SWAP1 POP JUMP JUMPDEST PUSH1 0x0 PUSH8 0xFFFFFFFFFFFFFFFF DUP3 GT ISZERO PUSH2 0x266A JUMPI PUSH2 0x2669 PUSH2 0x2889 JUMP JUMPDEST JUMPDEST PUSH1 0x20 DUP3 MUL SWAP1 POP SWAP2 SWAP1 POP JUMP JUMPDEST PUSH1 0x0 DUP3 DUP3 MSTORE PUSH1 0x20 DUP3 ADD SWAP1 POP SWAP3 SWAP2 POP POP JUMP JUMPDEST PUSH1 0x0 PUSH2 0x2691 DUP3 PUSH2 0x2776 JUMP JUMPDEST SWAP2 POP PUSH2 0x269C DUP4 PUSH2 0x2776 JUMP JUMPDEST SWAP3 POP DUP3 PUSH32 0xFFFFFFFFFFFFFFFFFFFFFFFFFFFFFFFFFFFFFFFFFFFFFFFFFFFFFFFFFFFFFFFF SUB DUP3 GT ISZERO PUSH2 0x26D1 JUMPI PUSH2 0x26D0 PUSH2 0x282B JUMP JUMPDEST JUMPDEST DUP3 DUP3 ADD SWAP1 POP SWAP3 SWAP2 POP POP JUMP JUMPDEST PUSH1 0x0 PUSH2 0x26E7 DUP3 PUSH2 0x2776 JUMP JUMPDEST SWAP2 POP PUSH2 0x26F2 DUP4 PUSH2 0x2776 JUMP JUMPDEST SWAP3 POP DUP2 PUSH32 0xFFFFFFFFFFFFFFFFFFFFFFFFFFFFFFFFFFFFFFFFFFFFFFFFFFFFFFFFFFFFFFFF DIV DUP4 GT DUP3 ISZERO ISZERO AND ISZERO PUSH2 0x272B JUMPI PUSH2 0x272A PUSH2 0x282B JUMP JUMPDEST JUMPDEST DUP3 DUP3 MUL SWAP1 POP SWAP3 SWAP2 POP POP JUMP JUMPDEST PUSH1 0x0 PUSH2 0x2741 DUP3 PUSH2 0x2776 JUMP JUMPDEST SWAP2 POP PUSH2 0x274C DUP4 PUSH2 0x2776 JUMP JUMPDEST SWAP3 POP DUP3 DUP3 LT ISZERO PUSH2 0x275F JUMPI PUSH2 0x275E PUSH2 0x282B JUMP JUMPDEST JUMPDEST DUP3 DUP3 SUB SWAP1 POP SWAP3 SWAP2 POP POP JUMP JUMPDEST PUSH1 0x0 DUP2 ISZERO ISZERO SWAP1 POP SWAP2 SWAP1 POP JUMP JUMPDEST PUSH1 0x0 DUP2 SWAP1 POP SWAP2 SWAP1 POP JUMP JUMPDEST PUSH2 0x2789 DUP3 PUSH2 0x28B8 JUMP JUMPDEST DUP2 ADD DUP2 DUP2 LT PUSH8 0xFFFFFFFFFFFFFFFF DUP3 GT OR ISZERO PUSH2 0x27A8 JUMPI PUSH2 0x27A7 PUSH2 0x2889 JUMP JUMPDEST JUMPDEST DUP1 PUSH1 0x40 MSTORE POP POP POP JUMP JUMPDEST PUSH1 0x0 PUSH2 0x27BC DUP3 PUSH2 0x2776 JUMP JUMPDEST SWAP2 POP PUSH32 0xFFFFFFFFFFFFFFFFFFFFFFFFFFFFFFFFFFFFFFFFFFFFFFFFFFFFFFFFFFFFFFFF DUP3 EQ ISZERO PUSH2 0x27EF JUMPI PUSH2 0x27EE PUSH2 0x282B JUMP JUMPDEST JUMPDEST PUSH1 0x1 DUP3 ADD SWAP1 POP SWAP2 SWAP1 POP JUMP JUMPDEST PUSH1 0x0 PUSH2 0x2805 DUP3 PUSH2 0x2776 JUMP JUMPDEST SWAP2 POP PUSH2 0x2810 DUP4 PUSH2 0x2776 JUMP JUMPDEST SWAP3 POP DUP3 PUSH2 0x2820 JUMPI PUSH2 0x281F PUSH2 0x285A JUMP JUMPDEST JUMPDEST DUP3 DUP3 MOD SWAP1 POP SWAP3 SWAP2 POP POP JUMP JUMPDEST PUSH32 0x4E487B7100000000000000000000000000000000000000000000000000000000 PUSH1 0x0 MSTORE PUSH1 0x11 PUSH1 0x4 MSTORE PUSH1 0x24 PUSH1 0x0 REVERT JUMPDEST PUSH32 0x4E487B7100000000000000000000000000000000000000000000000000000000 PUSH1 0x0 MSTORE PUSH1 0x12 PUSH1 0x4 MSTORE PUSH1 0x24 PUSH1 0x0 REVERT JUMPDEST PUSH32 0x4E487B7100000000000000000000000000000000000000000000000000000000 PUSH1 0x0 MSTORE PUSH1 0x41 PUSH1 0x4 MSTORE PUSH1 0x24 PUSH1 0x0 REVERT JUMPDEST PUSH1 0x0 PUSH1 0x1F NOT PUSH1 0x1F DUP4 ADD AND SWAP1 POP SWAP2 SWAP1 POP JUMP JUMPDEST PUSH32 0x76657269666965722D6261642D696E7075740000000000000000000000000000 PUSH1 0x0 DUP3 ADD MSTORE POP JUMP JUMPDEST PUSH32 0x70616972696E672D6D756C2D6661696C65640000000000000000000000000000 PUSH1 0x0 DUP3 ADD MSTORE POP JUMP JUMPDEST PUSH32 0x76657269666965722D6774652D736E61726B2D7363616C61722D6669656C6400 PUSH1 0x0 DUP3 ADD MSTORE POP JUMP JUMPDEST PUSH32 0x70616972696E672D6C656E677468732D6661696C656400000000000000000000 PUSH1 0x0 DUP3 ADD MSTORE POP JUMP JUMPDEST PUSH32 0x70616972696E672D6164642D6661696C65640000000000000000000000000000 PUSH1 0x0 DUP3 ADD MSTORE POP JUMP JUMPDEST PUSH32 0x70616972696E672D6F70636F64652D6661696C65640000000000000000000000 PUSH1 0x0 DUP3 ADD MSTORE POP JUMP JUMPDEST PUSH2 0x29C8 DUP2 PUSH2 0x2776 JUMP JUMPDEST DUP2 EQ PUSH2 0x29D3 JUMPI PUSH1 0x0 DUP1 REVERT JUMPDEST POP JUMP INVALID LOG2 PUSH5 0x6970667358 0x22 SLT KECCAK256 0xCD 0xC6 SWAP8 SUB 0x24 JUMPDEST 0xCA BLOCKHASH 0x21 SWAP8 0xE1 0xB7 SUB CALLDATACOPY PUSH15 0x7C86EACD417BDB15ACF4995B78D6F7 0xC6 PUSH24 0x64736F6C6343000804003300000000000000000000000000 "
        },
        "methodIdentifiers": {
          "verifyProof(uint256[2],uint256[2][2],uint256[2],uint256[13])": "f143a75e"
        }
      }
    }
  }
}